{
	"solidity_vars.sol": {
		"solidty_vars": {
			"abi": [
				{
					"inputs": [],
					"name": "block_diff",
					"outputs": [
						{
							"internalType": "uint256",
							"name": "",
							"type": "uint256"
						}
					],
					"stateMutability": "view",
					"type": "function"
				},
				{
					"inputs": [],
					"name": "block_now",
					"outputs": [
						{
							"internalType": "address",
							"name": "",
							"type": "address"
						}
					],
					"stateMutability": "view",
					"type": "function"
				},
				{
					"inputs": [],
					"name": "block_num",
					"outputs": [
						{
							"internalType": "uint256",
							"name": "",
							"type": "uint256"
						}
					],
					"stateMutability": "view",
					"type": "function"
				},
				{
					"inputs": [],
					"name": "gas_left",
					"outputs": [
						{
							"internalType": "uint256",
							"name": "",
							"type": "uint256"
						}
					],
					"stateMutability": "view",
					"type": "function"
				},
				{
					"inputs": [],
					"name": "gas_limit",
					"outputs": [
						{
							"internalType": "uint256",
							"name": "",
							"type": "uint256"
						}
					],
					"stateMutability": "view",
					"type": "function"
				},
				{
					"inputs": [],
					"name": "sender",
					"outputs": [
						{
							"internalType": "address",
							"name": "",
							"type": "address"
						}
					],
					"stateMutability": "view",
					"type": "function"
				},
				{
					"inputs": [],
					"name": "sig_id",
					"outputs": [
						{
							"internalType": "bytes4",
							"name": "",
							"type": "bytes4"
						}
					],
					"stateMutability": "view",
					"type": "function"
				},
				{
					"inputs": [],
					"name": "time_stamp",
					"outputs": [
						{
							"internalType": "uint256",
							"name": "",
							"type": "uint256"
						}
					],
					"stateMutability": "view",
					"type": "function"
				},
				{
					"inputs": [],
					"name": "updateParams",
					"outputs": [],
					"stateMutability": "nonpayable",
					"type": "function"
				}
			],
			"devdoc": {
				"kind": "dev",
				"methods": {},
				"version": 1
			},
			"evm": {
				"assembly": "    /* \"solidity_vars.sol\":60:971  contract solidty_vars {... */\n  mstore(0x40, 0x80)\n  callvalue\n  dup1\n  iszero\n  tag_1\n  jumpi\n  0x00\n  dup1\n  revert\ntag_1:\n  pop\n  dataSize(sub_0)\n  dup1\n  dataOffset(sub_0)\n  0x00\n  codecopy\n  0x00\n  return\nstop\n\nsub_0: assembly {\n        /* \"solidity_vars.sol\":60:971  contract solidty_vars {... */\n      mstore(0x40, 0x80)\n      callvalue\n      dup1\n      iszero\n      tag_1\n      jumpi\n      0x00\n      dup1\n      revert\n    tag_1:\n      pop\n      jumpi(tag_2, lt(calldatasize, 0x04))\n      shr(0xe0, calldataload(0x00))\n      dup1\n      0xa158c052\n      gt\n      tag_12\n      jumpi\n      dup1\n      0xa158c052\n      eq\n      tag_7\n      jumpi\n      dup1\n      0xcef32628\n      eq\n      tag_8\n      jumpi\n      dup1\n      0xd4180b58\n      eq\n      tag_9\n      jumpi\n      dup1\n      0xe4f45709\n      eq\n      tag_10\n      jumpi\n      dup1\n      0xf9c1c49a\n      eq\n      tag_11\n      jumpi\n      jump(tag_2)\n    tag_12:\n      dup1\n      0x54ec4d8a\n      eq\n      tag_3\n      jumpi\n      dup1\n      0x67e404ce\n      eq\n      tag_4\n      jumpi\n      dup1\n      0x8fe4b6e4\n      eq\n      tag_5\n      jumpi\n      dup1\n      0x9db18bf6\n      eq\n      tag_6\n      jumpi\n    tag_2:\n      0x00\n      dup1\n      revert\n        /* \"solidity_vars.sol\":285:307  uint public time_stamp */\n    tag_3:\n      tag_13\n      tag_14\n      jump\t// in\n    tag_13:\n      mload(0x40)\n      tag_15\n      swap2\n      swap1\n      tag_16\n      jump\t// in\n    tag_15:\n      mload(0x40)\n      dup1\n      swap2\n      sub\n      swap1\n      return\n        /* \"solidity_vars.sol\":406:427  address public sender */\n    tag_4:\n      tag_17\n      tag_18\n      jump\t// in\n    tag_17:\n      mload(0x40)\n      tag_19\n      swap2\n      swap1\n      tag_20\n      jump\t// in\n    tag_19:\n      mload(0x40)\n      dup1\n      swap2\n      sub\n      swap1\n      return\n        /* \"solidity_vars.sol\":361:381  uint public gas_left */\n    tag_5:\n      tag_21\n      tag_22\n      jump\t// in\n    tag_21:\n      mload(0x40)\n      tag_23\n      swap2\n      swap1\n      tag_16\n      jump\t// in\n    tag_23:\n      mload(0x40)\n      dup1\n      swap2\n      sub\n      swap1\n      return\n        /* \"solidity_vars.sol\":499:519  bytes4 public sig_id */\n    tag_6:\n      tag_24\n      tag_25\n      jump\t// in\n    tag_24:\n      mload(0x40)\n      tag_26\n      swap2\n      swap1\n      tag_27\n      jump\t// in\n    tag_26:\n      mload(0x40)\n      dup1\n      swap2\n      sub\n      swap1\n      return\n        /* \"solidity_vars.sol\":159:181  uint public block_diff */\n    tag_7:\n      tag_28\n      tag_29\n      jump\t// in\n    tag_28:\n      mload(0x40)\n      tag_30\n      swap2\n      swap1\n      tag_16\n      jump\t// in\n    tag_30:\n      mload(0x40)\n      dup1\n      swap2\n      sub\n      swap1\n      return\n        /* \"solidity_vars.sol\":649:964  function updateParams() public {... */\n    tag_8:\n      tag_31\n      tag_32\n      jump\t// in\n    tag_31:\n      stop\n        /* \"solidity_vars.sol\":579:600  uint public gas_limit */\n    tag_9:\n      tag_33\n      tag_34\n      jump\t// in\n    tag_33:\n      mload(0x40)\n      tag_35\n      swap2\n      swap1\n      tag_16\n      jump\t// in\n    tag_35:\n      mload(0x40)\n      dup1\n      swap2\n      sub\n      swap1\n      return\n        /* \"solidity_vars.sol\":95:119  address public block_now */\n    tag_10:\n      tag_36\n      tag_37\n      jump\t// in\n    tag_36:\n      mload(0x40)\n      tag_38\n      swap2\n      swap1\n      tag_20\n      jump\t// in\n    tag_38:\n      mload(0x40)\n      dup1\n      swap2\n      sub\n      swap1\n      return\n        /* \"solidity_vars.sol\":224:245  uint public block_num */\n    tag_11:\n      tag_39\n      tag_40\n      jump\t// in\n    tag_39:\n      mload(0x40)\n      tag_41\n      swap2\n      swap1\n      tag_16\n      jump\t// in\n    tag_41:\n      mload(0x40)\n      dup1\n      swap2\n      sub\n      swap1\n      return\n        /* \"solidity_vars.sol\":285:307  uint public time_stamp */\n    tag_14:\n      sload(0x03)\n      dup2\n      jump\t// out\n        /* \"solidity_vars.sol\":406:427  address public sender */\n    tag_18:\n      0x05\n      0x00\n      swap1\n      sload\n      swap1\n      0x0100\n      exp\n      swap1\n      div\n      0xffffffffffffffffffffffffffffffffffffffff\n      and\n      dup2\n      jump\t// out\n        /* \"solidity_vars.sol\":361:381  uint public gas_left */\n    tag_22:\n      sload(0x04)\n      dup2\n      jump\t// out\n        /* \"solidity_vars.sol\":499:519  bytes4 public sig_id */\n    tag_25:\n      0x05\n      0x14\n      swap1\n      sload\n      swap1\n      0x0100\n      exp\n      swap1\n      div\n      0xe0\n      shl\n      dup2\n      jump\t// out\n        /* \"solidity_vars.sol\":159:181  uint public block_diff */\n    tag_29:\n      sload(0x01)\n      dup2\n      jump\t// out\n        /* \"solidity_vars.sol\":649:964  function updateParams() public {... */\n    tag_32:\n        /* \"solidity_vars.sol\":703:717  block.coinbase */\n      coinbase\n        /* \"solidity_vars.sol\":691:700  block_now */\n      0x00\n      dup1\n        /* \"solidity_vars.sol\":691:717  block_now = block.coinbase */\n      0x0100\n      exp\n      dup2\n      sload\n      dup2\n      0xffffffffffffffffffffffffffffffffffffffff\n      mul\n      not\n      and\n      swap1\n      dup4\n      0xffffffffffffffffffffffffffffffffffffffff\n      and\n      mul\n      or\n      swap1\n      sstore\n      pop\n        /* \"solidity_vars.sol\":741:757  block.prevrandao */\n      prevrandao\n        /* \"solidity_vars.sol\":728:738  block_diff */\n      0x01\n        /* \"solidity_vars.sol\":728:757  block_diff = block.prevrandao */\n      dup2\n      swap1\n      sstore\n      pop\n        /* \"solidity_vars.sol\":780:792  block.number */\n      number\n        /* \"solidity_vars.sol\":768:777  block_num */\n      0x02\n        /* \"solidity_vars.sol\":768:792  block_num = block.number */\n      dup2\n      swap1\n      sstore\n      pop\n        /* \"solidity_vars.sol\":816:831  block.timestamp */\n      timestamp\n        /* \"solidity_vars.sol\":803:813  time_stamp */\n      0x03\n        /* \"solidity_vars.sol\":803:831  time_stamp = block.timestamp */\n      dup2\n      swap1\n      sstore\n      pop\n        /* \"solidity_vars.sol\":853:862  gasleft() */\n      gas\n        /* \"solidity_vars.sol\":842:850  gas_left */\n      0x04\n        /* \"solidity_vars.sol\":842:862  gas_left = gasleft() */\n      dup2\n      swap1\n      sstore\n      pop\n        /* \"solidity_vars.sol\":882:892  msg.sender */\n      caller\n        /* \"solidity_vars.sol\":873:879  sender */\n      0x05\n      0x00\n        /* \"solidity_vars.sol\":873:892  sender = msg.sender */\n      0x0100\n      exp\n      dup2\n      sload\n      dup2\n      0xffffffffffffffffffffffffffffffffffffffff\n      mul\n      not\n      and\n      swap1\n      dup4\n      0xffffffffffffffffffffffffffffffffffffffff\n      and\n      mul\n      or\n      swap1\n      sstore\n      pop\n        /* \"solidity_vars.sol\":912:919  msg.sig */\n      and(0xffffffff00000000000000000000000000000000000000000000000000000000, calldataload(0x00))\n        /* \"solidity_vars.sol\":903:909  sig_id */\n      0x05\n      0x14\n        /* \"solidity_vars.sol\":903:919  sig_id = msg.sig */\n      0x0100\n      exp\n      dup2\n      sload\n      dup2\n      0xffffffff\n      mul\n      not\n      and\n      swap1\n      dup4\n      0xe0\n      shr\n      mul\n      or\n      swap1\n      sstore\n      pop\n        /* \"solidity_vars.sol\":942:956  block.gaslimit */\n      gaslimit\n        /* \"solidity_vars.sol\":930:939  gas_limit */\n      0x06\n        /* \"solidity_vars.sol\":930:956  gas_limit = block.gaslimit */\n      dup2\n      swap1\n      sstore\n      pop\n        /* \"solidity_vars.sol\":649:964  function updateParams() public {... */\n      jump\t// out\n        /* \"solidity_vars.sol\":579:600  uint public gas_limit */\n    tag_34:\n      sload(0x06)\n      dup2\n      jump\t// out\n        /* \"solidity_vars.sol\":95:119  address public block_now */\n    tag_37:\n      0x00\n      dup1\n      sload\n      swap1\n      0x0100\n      exp\n      swap1\n      div\n      0xffffffffffffffffffffffffffffffffffffffff\n      and\n      dup2\n      jump\t// out\n        /* \"solidity_vars.sol\":224:245  uint public block_num */\n    tag_40:\n      sload(0x02)\n      dup2\n      jump\t// out\n        /* \"#utility.yul\":7:84   */\n    tag_43:\n        /* \"#utility.yul\":44:51   */\n      0x00\n        /* \"#utility.yul\":73:78   */\n      dup2\n        /* \"#utility.yul\":62:78   */\n      swap1\n      pop\n        /* \"#utility.yul\":7:84   */\n      swap2\n      swap1\n      pop\n      jump\t// out\n        /* \"#utility.yul\":90:208   */\n    tag_44:\n        /* \"#utility.yul\":177:201   */\n      tag_53\n        /* \"#utility.yul\":195:200   */\n      dup2\n        /* \"#utility.yul\":177:201   */\n      tag_43\n      jump\t// in\n    tag_53:\n        /* \"#utility.yul\":172:175   */\n      dup3\n        /* \"#utility.yul\":165:202   */\n      mstore\n        /* \"#utility.yul\":90:208   */\n      pop\n      pop\n      jump\t// out\n        /* \"#utility.yul\":214:436   */\n    tag_16:\n        /* \"#utility.yul\":307:311   */\n      0x00\n        /* \"#utility.yul\":345:347   */\n      0x20\n        /* \"#utility.yul\":334:343   */\n      dup3\n        /* \"#utility.yul\":330:348   */\n      add\n        /* \"#utility.yul\":322:348   */\n      swap1\n      pop\n        /* \"#utility.yul\":358:429   */\n      tag_55\n        /* \"#utility.yul\":426:427   */\n      0x00\n        /* \"#utility.yul\":415:424   */\n      dup4\n        /* \"#utility.yul\":411:428   */\n      add\n        /* \"#utility.yul\":402:408   */\n      dup5\n        /* \"#utility.yul\":358:429   */\n      tag_44\n      jump\t// in\n    tag_55:\n        /* \"#utility.yul\":214:436   */\n      swap3\n      swap2\n      pop\n      pop\n      jump\t// out\n        /* \"#utility.yul\":442:568   */\n    tag_45:\n        /* \"#utility.yul\":479:486   */\n      0x00\n        /* \"#utility.yul\":519:561   */\n      0xffffffffffffffffffffffffffffffffffffffff\n        /* \"#utility.yul\":512:517   */\n      dup3\n        /* \"#utility.yul\":508:562   */\n      and\n        /* \"#utility.yul\":497:562   */\n      swap1\n      pop\n        /* \"#utility.yul\":442:568   */\n      swap2\n      swap1\n      pop\n      jump\t// out\n        /* \"#utility.yul\":574:670   */\n    tag_46:\n        /* \"#utility.yul\":611:618   */\n      0x00\n        /* \"#utility.yul\":640:664   */\n      tag_58\n        /* \"#utility.yul\":658:663   */\n      dup3\n        /* \"#utility.yul\":640:664   */\n      tag_45\n      jump\t// in\n    tag_58:\n        /* \"#utility.yul\":629:664   */\n      swap1\n      pop\n        /* \"#utility.yul\":574:670   */\n      swap2\n      swap1\n      pop\n      jump\t// out\n        /* \"#utility.yul\":676:794   */\n    tag_47:\n        /* \"#utility.yul\":763:787   */\n      tag_60\n        /* \"#utility.yul\":781:786   */\n      dup2\n        /* \"#utility.yul\":763:787   */\n      tag_46\n      jump\t// in\n    tag_60:\n        /* \"#utility.yul\":758:761   */\n      dup3\n        /* \"#utility.yul\":751:788   */\n      mstore\n        /* \"#utility.yul\":676:794   */\n      pop\n      pop\n      jump\t// out\n        /* \"#utility.yul\":800:1022   */\n    tag_20:\n        /* \"#utility.yul\":893:897   */\n      0x00\n        /* \"#utility.yul\":931:933   */\n      0x20\n        /* \"#utility.yul\":920:929   */\n      dup3\n        /* \"#utility.yul\":916:934   */\n      add\n        /* \"#utility.yul\":908:934   */\n      swap1\n      pop\n        /* \"#utility.yul\":944:1015   */\n      tag_62\n        /* \"#utility.yul\":1012:1013   */\n      0x00\n        /* \"#utility.yul\":1001:1010   */\n      dup4\n        /* \"#utility.yul\":997:1014   */\n      add\n        /* \"#utility.yul\":988:994   */\n      dup5\n        /* \"#utility.yul\":944:1015   */\n      tag_47\n      jump\t// in\n    tag_62:\n        /* \"#utility.yul\":800:1022   */\n      swap3\n      swap2\n      pop\n      pop\n      jump\t// out\n        /* \"#utility.yul\":1028:1177   */\n    tag_48:\n        /* \"#utility.yul\":1064:1071   */\n      0x00\n        /* \"#utility.yul\":1104:1170   */\n      0xffffffff00000000000000000000000000000000000000000000000000000000\n        /* \"#utility.yul\":1097:1102   */\n      dup3\n        /* \"#utility.yul\":1093:1171   */\n      and\n        /* \"#utility.yul\":1082:1171   */\n      swap1\n      pop\n        /* \"#utility.yul\":1028:1177   */\n      swap2\n      swap1\n      pop\n      jump\t// out\n        /* \"#utility.yul\":1183:1298   */\n    tag_49:\n        /* \"#utility.yul\":1268:1291   */\n      tag_65\n        /* \"#utility.yul\":1285:1290   */\n      dup2\n        /* \"#utility.yul\":1268:1291   */\n      tag_48\n      jump\t// in\n    tag_65:\n        /* \"#utility.yul\":1263:1266   */\n      dup3\n        /* \"#utility.yul\":1256:1292   */\n      mstore\n        /* \"#utility.yul\":1183:1298   */\n      pop\n      pop\n      jump\t// out\n        /* \"#utility.yul\":1304:1522   */\n    tag_27:\n        /* \"#utility.yul\":1395:1399   */\n      0x00\n        /* \"#utility.yul\":1433:1435   */\n      0x20\n        /* \"#utility.yul\":1422:1431   */\n      dup3\n        /* \"#utility.yul\":1418:1436   */\n      add\n        /* \"#utility.yul\":1410:1436   */\n      swap1\n      pop\n        /* \"#utility.yul\":1446:1515   */\n      tag_67\n        /* \"#utility.yul\":1512:1513   */\n      0x00\n        /* \"#utility.yul\":1501:1510   */\n      dup4\n        /* \"#utility.yul\":1497:1514   */\n      add\n        /* \"#utility.yul\":1488:1494   */\n      dup5\n        /* \"#utility.yul\":1446:1515   */\n      tag_49\n      jump\t// in\n    tag_67:\n        /* \"#utility.yul\":1304:1522   */\n      swap3\n      swap2\n      pop\n      pop\n      jump\t// out\n\n    auxdata: 0xa2646970667358221220b703dfb57e96c02dcfdbaf02b066c349c06d5856cc70f8023280476acb16d2b464736f6c63430008180033\n}\n",
				"bytecode": {
					"linkReferences": {},
					"object": "608060405234801561000f575f80fd5b506103ff8061001d5f395ff3fe608060405234801561000f575f80fd5b5060043610610091575f3560e01c8063a158c05211610064578063a158c0521461010d578063cef326281461012b578063d4180b5814610135578063e4f4570914610153578063f9c1c49a1461017157610091565b806354ec4d8a1461009557806367e404ce146100b35780638fe4b6e4146100d15780639db18bf6146100ef575b5f80fd5b61009d61018f565b6040516100aa9190610305565b60405180910390f35b6100bb610195565b6040516100c8919061035d565b60405180910390f35b6100d96101ba565b6040516100e69190610305565b60405180910390f35b6100f76101c0565b60405161010491906103b0565b60405180910390f35b6101156101d3565b6040516101229190610305565b60405180910390f35b6101336101d9565b005b61013d6102be565b60405161014a9190610305565b60405180910390f35b61015b6102c4565b604051610168919061035d565b60405180910390f35b6101796102e7565b6040516101869190610305565b60405180910390f35b60035481565b60055f9054906101000a900473ffffffffffffffffffffffffffffffffffffffff1681565b60045481565b600560149054906101000a900460e01b81565b60015481565b415f806101000a81548173ffffffffffffffffffffffffffffffffffffffff021916908373ffffffffffffffffffffffffffffffffffffffff1602179055504460018190555043600281905550426003819055505a6004819055503360055f6101000a81548173ffffffffffffffffffffffffffffffffffffffff021916908373ffffffffffffffffffffffffffffffffffffffff1602179055505f357fffffffff0000000000000000000000000000000000000000000000000000000016600560146101000a81548163ffffffff021916908360e01c021790555045600681905550565b60065481565b5f8054906101000a900473ffffffffffffffffffffffffffffffffffffffff1681565b60025481565b5f819050919050565b6102ff816102ed565b82525050565b5f6020820190506103185f8301846102f6565b92915050565b5f73ffffffffffffffffffffffffffffffffffffffff82169050919050565b5f6103478261031e565b9050919050565b6103578161033d565b82525050565b5f6020820190506103705f83018461034e565b92915050565b5f7fffffffff0000000000000000000000000000000000000000000000000000000082169050919050565b6103aa81610376565b82525050565b5f6020820190506103c35f8301846103a1565b9291505056fea2646970667358221220b703dfb57e96c02dcfdbaf02b066c349c06d5856cc70f8023280476acb16d2b464736f6c63430008180033",
					"opcodes": "PUSH1 0x80 PUSH1 0x40 MSTORE CALLVALUE DUP1 ISZERO PUSH2 0xF JUMPI PUSH0 DUP1 REVERT JUMPDEST POP PUSH2 0x3FF DUP1 PUSH2 0x1D PUSH0 CODECOPY PUSH0 RETURN INVALID PUSH1 0x80 PUSH1 0x40 MSTORE CALLVALUE DUP1 ISZERO PUSH2 0xF JUMPI PUSH0 DUP1 REVERT JUMPDEST POP PUSH1 0x4 CALLDATASIZE LT PUSH2 0x91 JUMPI PUSH0 CALLDATALOAD PUSH1 0xE0 SHR DUP1 PUSH4 0xA158C052 GT PUSH2 0x64 JUMPI DUP1 PUSH4 0xA158C052 EQ PUSH2 0x10D JUMPI DUP1 PUSH4 0xCEF32628 EQ PUSH2 0x12B JUMPI DUP1 PUSH4 0xD4180B58 EQ PUSH2 0x135 JUMPI DUP1 PUSH4 0xE4F45709 EQ PUSH2 0x153 JUMPI DUP1 PUSH4 0xF9C1C49A EQ PUSH2 0x171 JUMPI PUSH2 0x91 JUMP JUMPDEST DUP1 PUSH4 0x54EC4D8A EQ PUSH2 0x95 JUMPI DUP1 PUSH4 0x67E404CE EQ PUSH2 0xB3 JUMPI DUP1 PUSH4 0x8FE4B6E4 EQ PUSH2 0xD1 JUMPI DUP1 PUSH4 0x9DB18BF6 EQ PUSH2 0xEF JUMPI JUMPDEST PUSH0 DUP1 REVERT JUMPDEST PUSH2 0x9D PUSH2 0x18F JUMP JUMPDEST PUSH1 0x40 MLOAD PUSH2 0xAA SWAP2 SWAP1 PUSH2 0x305 JUMP JUMPDEST PUSH1 0x40 MLOAD DUP1 SWAP2 SUB SWAP1 RETURN JUMPDEST PUSH2 0xBB PUSH2 0x195 JUMP JUMPDEST PUSH1 0x40 MLOAD PUSH2 0xC8 SWAP2 SWAP1 PUSH2 0x35D JUMP JUMPDEST PUSH1 0x40 MLOAD DUP1 SWAP2 SUB SWAP1 RETURN JUMPDEST PUSH2 0xD9 PUSH2 0x1BA JUMP JUMPDEST PUSH1 0x40 MLOAD PUSH2 0xE6 SWAP2 SWAP1 PUSH2 0x305 JUMP JUMPDEST PUSH1 0x40 MLOAD DUP1 SWAP2 SUB SWAP1 RETURN JUMPDEST PUSH2 0xF7 PUSH2 0x1C0 JUMP JUMPDEST PUSH1 0x40 MLOAD PUSH2 0x104 SWAP2 SWAP1 PUSH2 0x3B0 JUMP JUMPDEST PUSH1 0x40 MLOAD DUP1 SWAP2 SUB SWAP1 RETURN JUMPDEST PUSH2 0x115 PUSH2 0x1D3 JUMP JUMPDEST PUSH1 0x40 MLOAD PUSH2 0x122 SWAP2 SWAP1 PUSH2 0x305 JUMP JUMPDEST PUSH1 0x40 MLOAD DUP1 SWAP2 SUB SWAP1 RETURN JUMPDEST PUSH2 0x133 PUSH2 0x1D9 JUMP JUMPDEST STOP JUMPDEST PUSH2 0x13D PUSH2 0x2BE JUMP JUMPDEST PUSH1 0x40 MLOAD PUSH2 0x14A SWAP2 SWAP1 PUSH2 0x305 JUMP JUMPDEST PUSH1 0x40 MLOAD DUP1 SWAP2 SUB SWAP1 RETURN JUMPDEST PUSH2 0x15B PUSH2 0x2C4 JUMP JUMPDEST PUSH1 0x40 MLOAD PUSH2 0x168 SWAP2 SWAP1 PUSH2 0x35D JUMP JUMPDEST PUSH1 0x40 MLOAD DUP1 SWAP2 SUB SWAP1 RETURN JUMPDEST PUSH2 0x179 PUSH2 0x2E7 JUMP JUMPDEST PUSH1 0x40 MLOAD PUSH2 0x186 SWAP2 SWAP1 PUSH2 0x305 JUMP JUMPDEST PUSH1 0x40 MLOAD DUP1 SWAP2 SUB SWAP1 RETURN JUMPDEST PUSH1 0x3 SLOAD DUP2 JUMP JUMPDEST PUSH1 0x5 PUSH0 SWAP1 SLOAD SWAP1 PUSH2 0x100 EXP SWAP1 DIV PUSH20 0xFFFFFFFFFFFFFFFFFFFFFFFFFFFFFFFFFFFFFFFF AND DUP2 JUMP JUMPDEST PUSH1 0x4 SLOAD DUP2 JUMP JUMPDEST PUSH1 0x5 PUSH1 0x14 SWAP1 SLOAD SWAP1 PUSH2 0x100 EXP SWAP1 DIV PUSH1 0xE0 SHL DUP2 JUMP JUMPDEST PUSH1 0x1 SLOAD DUP2 JUMP JUMPDEST COINBASE PUSH0 DUP1 PUSH2 0x100 EXP DUP2 SLOAD DUP2 PUSH20 0xFFFFFFFFFFFFFFFFFFFFFFFFFFFFFFFFFFFFFFFF MUL NOT AND SWAP1 DUP4 PUSH20 0xFFFFFFFFFFFFFFFFFFFFFFFFFFFFFFFFFFFFFFFF AND MUL OR SWAP1 SSTORE POP PREVRANDAO PUSH1 0x1 DUP2 SWAP1 SSTORE POP NUMBER PUSH1 0x2 DUP2 SWAP1 SSTORE POP TIMESTAMP PUSH1 0x3 DUP2 SWAP1 SSTORE POP GAS PUSH1 0x4 DUP2 SWAP1 SSTORE POP CALLER PUSH1 0x5 PUSH0 PUSH2 0x100 EXP DUP2 SLOAD DUP2 PUSH20 0xFFFFFFFFFFFFFFFFFFFFFFFFFFFFFFFFFFFFFFFF MUL NOT AND SWAP1 DUP4 PUSH20 0xFFFFFFFFFFFFFFFFFFFFFFFFFFFFFFFFFFFFFFFF AND MUL OR SWAP1 SSTORE POP PUSH0 CALLDATALOAD PUSH32 0xFFFFFFFF00000000000000000000000000000000000000000000000000000000 AND PUSH1 0x5 PUSH1 0x14 PUSH2 0x100 EXP DUP2 SLOAD DUP2 PUSH4 0xFFFFFFFF MUL NOT AND SWAP1 DUP4 PUSH1 0xE0 SHR MUL OR SWAP1 SSTORE POP GASLIMIT PUSH1 0x6 DUP2 SWAP1 SSTORE POP JUMP JUMPDEST PUSH1 0x6 SLOAD DUP2 JUMP JUMPDEST PUSH0 DUP1 SLOAD SWAP1 PUSH2 0x100 EXP SWAP1 DIV PUSH20 0xFFFFFFFFFFFFFFFFFFFFFFFFFFFFFFFFFFFFFFFF AND DUP2 JUMP JUMPDEST PUSH1 0x2 SLOAD DUP2 JUMP JUMPDEST PUSH0 DUP2 SWAP1 POP SWAP2 SWAP1 POP JUMP JUMPDEST PUSH2 0x2FF DUP2 PUSH2 0x2ED JUMP JUMPDEST DUP3 MSTORE POP POP JUMP JUMPDEST PUSH0 PUSH1 0x20 DUP3 ADD SWAP1 POP PUSH2 0x318 PUSH0 DUP4 ADD DUP5 PUSH2 0x2F6 JUMP JUMPDEST SWAP3 SWAP2 POP POP JUMP JUMPDEST PUSH0 PUSH20 0xFFFFFFFFFFFFFFFFFFFFFFFFFFFFFFFFFFFFFFFF DUP3 AND SWAP1 POP SWAP2 SWAP1 POP JUMP JUMPDEST PUSH0 PUSH2 0x347 DUP3 PUSH2 0x31E JUMP JUMPDEST SWAP1 POP SWAP2 SWAP1 POP JUMP JUMPDEST PUSH2 0x357 DUP2 PUSH2 0x33D JUMP JUMPDEST DUP3 MSTORE POP POP JUMP JUMPDEST PUSH0 PUSH1 0x20 DUP3 ADD SWAP1 POP PUSH2 0x370 PUSH0 DUP4 ADD DUP5 PUSH2 0x34E JUMP JUMPDEST SWAP3 SWAP2 POP POP JUMP JUMPDEST PUSH0 PUSH32 0xFFFFFFFF00000000000000000000000000000000000000000000000000000000 DUP3 AND SWAP1 POP SWAP2 SWAP1 POP JUMP JUMPDEST PUSH2 0x3AA DUP2 PUSH2 0x376 JUMP JUMPDEST DUP3 MSTORE POP POP JUMP JUMPDEST PUSH0 PUSH1 0x20 DUP3 ADD SWAP1 POP PUSH2 0x3C3 PUSH0 DUP4 ADD DUP5 PUSH2 0x3A1 JUMP JUMPDEST SWAP3 SWAP2 POP POP JUMP INVALID LOG2 PUSH5 0x6970667358 0x22 SLT KECCAK256 0xB7 SUB 0xDF 0xB5 PUSH31 0x96C02DCFDBAF02B066C349C06D5856CC70F8023280476ACB16D2B464736F6C PUSH4 0x43000818 STOP CALLER "
				},
				"gasEstimates": {
					"creation": {
						"codeDepositCost": "204600",
						"executionCost": "243",
						"totalCost": "204843"
					},
					"external": {
						"block_diff()": "2425",
						"block_now()": "2571",
						"block_num()": "2513",
						"gas_left()": "2470",
						"gas_limit()": "2469",
						"sender()": "2531",
						"sig_id()": "2584",
						"time_stamp()": "2426",
						"updateParams()": "183585"
					}
				},
				"methodIdentifiers": {
					"block_diff()": "a158c052",
					"block_now()": "e4f45709",
					"block_num()": "f9c1c49a",
					"gas_left()": "8fe4b6e4",
					"gas_limit()": "d4180b58",
					"sender()": "67e404ce",
					"sig_id()": "9db18bf6",
					"time_stamp()": "54ec4d8a",
					"updateParams()": "cef32628"
				}
			},
			"storageLayout": {
				"storage": [
					{
						"astId": 3,
						"contract": "solidity_vars.sol:solidty_vars",
						"label": "block_now",
						"offset": 0,
						"slot": "0",
						"type": "t_address"
					},
					{
						"astId": 5,
						"contract": "solidity_vars.sol:solidty_vars",
						"label": "block_diff",
						"offset": 0,
						"slot": "1",
						"type": "t_uint256"
					},
					{
						"astId": 7,
						"contract": "solidity_vars.sol:solidty_vars",
						"label": "block_num",
						"offset": 0,
						"slot": "2",
						"type": "t_uint256"
					},
					{
						"astId": 9,
						"contract": "solidity_vars.sol:solidty_vars",
						"label": "time_stamp",
						"offset": 0,
						"slot": "3",
						"type": "t_uint256"
					},
					{
						"astId": 11,
						"contract": "solidity_vars.sol:solidty_vars",
						"label": "gas_left",
						"offset": 0,
						"slot": "4",
						"type": "t_uint256"
					},
					{
						"astId": 13,
						"contract": "solidity_vars.sol:solidty_vars",
						"label": "sender",
						"offset": 0,
						"slot": "5",
						"type": "t_address"
					},
					{
						"astId": 15,
						"contract": "solidity_vars.sol:solidty_vars",
						"label": "sig_id",
						"offset": 20,
						"slot": "5",
						"type": "t_bytes4"
					},
					{
						"astId": 17,
						"contract": "solidity_vars.sol:solidty_vars",
						"label": "gas_limit",
						"offset": 0,
						"slot": "6",
						"type": "t_uint256"
					}
				],
				"types": {
					"t_address": {
						"encoding": "inplace",
						"label": "address",
						"numberOfBytes": "20"
					},
					"t_bytes4": {
						"encoding": "inplace",
						"label": "bytes4",
						"numberOfBytes": "4"
					},
					"t_uint256": {
						"encoding": "inplace",
						"label": "uint256",
						"numberOfBytes": "32"
					}
				}
			},
			"userdoc": {
				"kind": "user",
				"methods": {},
				"version": 1
			}
		}
	}
}