{
	"tc_arb.sol": {
		"tc_arb": {
			"abi": [
				{
					"inputs": [],
					"stateMutability": "nonpayable",
					"type": "constructor"
				},
				{
					"anonymous": false,
					"inputs": [
						{
							"indexed": false,
							"internalType": "string",
							"name": "date",
							"type": "string"
						},
						{
							"indexed": false,
							"internalType": "string",
							"name": "delivery_date",
							"type": "string"
						},
						{
							"indexed": false,
							"internalType": "string",
							"name": "product",
							"type": "string"
						},
						{
							"indexed": false,
							"internalType": "string",
							"name": "price",
							"type": "string"
						},
						{
							"indexed": false,
							"internalType": "string",
							"name": "code",
							"type": "string"
						},
						{
							"indexed": false,
							"internalType": "string",
							"name": "cel_number",
							"type": "string"
						},
						{
							"indexed": false,
							"internalType": "int8",
							"name": "status",
							"type": "int8"
						},
						{
							"indexed": false,
							"internalType": "address",
							"name": "wallet",
							"type": "address"
						}
					],
					"name": "newData",
					"type": "event"
				},
				{
					"inputs": [],
					"name": "data",
					"outputs": [
						{
							"internalType": "string",
							"name": "date",
							"type": "string"
						},
						{
							"internalType": "string",
							"name": "delivery_date",
							"type": "string"
						},
						{
							"internalType": "string",
							"name": "product",
							"type": "string"
						},
						{
							"internalType": "string",
							"name": "price",
							"type": "string"
						},
						{
							"internalType": "string",
							"name": "code",
							"type": "string"
						},
						{
							"internalType": "string",
							"name": "cel_number",
							"type": "string"
						},
						{
							"internalType": "int8",
							"name": "status",
							"type": "int8"
						},
						{
							"internalType": "address",
							"name": "wallet",
							"type": "address"
						}
					],
					"stateMutability": "view",
					"type": "function"
				},
				{
					"inputs": [],
					"name": "getBalance",
					"outputs": [
						{
							"internalType": "uint256",
							"name": "",
							"type": "uint256"
						}
					],
					"stateMutability": "view",
					"type": "function"
				},
				{
					"inputs": [],
					"name": "owner",
					"outputs": [
						{
							"internalType": "address payable",
							"name": "",
							"type": "address"
						}
					],
					"stateMutability": "view",
					"type": "function"
				},
				{
					"inputs": [
						{
							"internalType": "string",
							"name": "_date",
							"type": "string"
						},
						{
							"internalType": "string",
							"name": "_delivery_date",
							"type": "string"
						},
						{
							"internalType": "string",
							"name": "_product",
							"type": "string"
						},
						{
							"internalType": "string",
							"name": "_price",
							"type": "string"
						},
						{
							"internalType": "string",
							"name": "_code",
							"type": "string"
						},
						{
							"internalType": "string",
							"name": "_cel_number",
							"type": "string"
						},
						{
							"internalType": "int8",
							"name": "_status",
							"type": "int8"
						}
					],
					"name": "pushData",
					"outputs": [],
					"stateMutability": "payable",
					"type": "function"
				},
				{
					"inputs": [],
					"name": "withdraw",
					"outputs": [],
					"stateMutability": "nonpayable",
					"type": "function"
				}
			],
			"devdoc": {
				"kind": "dev",
				"methods": {},
				"version": 1
			},
			"evm": {
				"assembly": "    /* \"tc_arb.sol\":61:3148  contract tc_arb {... */\n  mstore(0x40, 0x80)\n    /* \"tc_arb.sol\":1687:1746  constructor(){... */\n  callvalue\n  dup1\n  iszero\n  tag_1\n  jumpi\n  0x00\n  dup1\n  revert\ntag_1:\n  pop\n    /* \"tc_arb.sol\":1727:1737  msg.sender */\n  caller\n    /* \"tc_arb.sol\":1711:1716  owner */\n  0x00\n  dup1\n    /* \"tc_arb.sol\":1711:1738  owner = payable(msg.sender) */\n  0x0100\n  exp\n  dup2\n  sload\n  dup2\n  0xffffffffffffffffffffffffffffffffffffffff\n  mul\n  not\n  and\n  swap1\n  dup4\n  0xffffffffffffffffffffffffffffffffffffffff\n  and\n  mul\n  or\n  swap1\n  sstore\n  pop\n    /* \"tc_arb.sol\":61:3148  contract tc_arb {... */\n  dataSize(sub_0)\n  dup1\n  dataOffset(sub_0)\n  0x00\n  codecopy\n  0x00\n  return\nstop\n\nsub_0: assembly {\n        /* \"tc_arb.sol\":61:3148  contract tc_arb {... */\n      mstore(0x40, 0x80)\n      jumpi(tag_1, lt(calldatasize, 0x04))\n      shr(0xe0, calldataload(0x00))\n      dup1\n      0x12065fe0\n      eq\n      tag_2\n      jumpi\n      dup1\n      0x3ccfd60b\n      eq\n      tag_3\n      jumpi\n      dup1\n      0x73d4a13a\n      eq\n      tag_4\n      jumpi\n      dup1\n      0x782154df\n      eq\n      tag_5\n      jumpi\n      dup1\n      0x8da5cb5b\n      eq\n      tag_6\n      jumpi\n    tag_1:\n      0x00\n      dup1\n      revert\n        /* \"tc_arb.sol\":3046:3145  function getBalance() public view returns (uint256) {... */\n    tag_2:\n      callvalue\n      dup1\n      iszero\n      tag_7\n      jumpi\n      0x00\n      dup1\n      revert\n    tag_7:\n      pop\n      tag_8\n      tag_9\n      jump\t// in\n    tag_8:\n      mload(0x40)\n      tag_10\n      swap2\n      swap1\n      tag_11\n      jump\t// in\n    tag_10:\n      mload(0x40)\n      dup1\n      swap2\n      sub\n      swap1\n      return\n        /* \"tc_arb.sol\":2777:2966  function withdraw() public onlyOwner {... */\n    tag_3:\n      callvalue\n      dup1\n      iszero\n      tag_12\n      jumpi\n      0x00\n      dup1\n      revert\n    tag_12:\n      pop\n      tag_13\n      tag_14\n      jump\t// in\n    tag_13:\n      stop\n        /* \"tc_arb.sol\":811:827  Data public data */\n    tag_4:\n      callvalue\n      dup1\n      iszero\n      tag_15\n      jumpi\n      0x00\n      dup1\n      revert\n    tag_15:\n      pop\n      tag_16\n      tag_17\n      jump\t// in\n    tag_16:\n      mload(0x40)\n      tag_18\n      swap9\n      swap8\n      swap7\n      swap6\n      swap5\n      swap4\n      swap3\n      swap2\n      swap1\n      tag_19\n      jump\t// in\n    tag_18:\n      mload(0x40)\n      dup1\n      swap2\n      sub\n      swap1\n      return\n        /* \"tc_arb.sol\":1802:2716  function pushData(string memory _date,... */\n    tag_5:\n      tag_20\n      0x04\n      dup1\n      calldatasize\n      sub\n      dup2\n      add\n      swap1\n      tag_21\n      swap2\n      swap1\n      tag_22\n      jump\t// in\n    tag_21:\n      tag_23\n      jump\t// in\n    tag_20:\n      stop\n        /* \"tc_arb.sol\":155:183  address payable public owner */\n    tag_6:\n      callvalue\n      dup1\n      iszero\n      tag_24\n      jumpi\n      0x00\n      dup1\n      revert\n    tag_24:\n      pop\n      tag_25\n      tag_26\n      jump\t// in\n    tag_25:\n      mload(0x40)\n      tag_27\n      swap2\n      swap1\n      tag_28\n      jump\t// in\n    tag_27:\n      mload(0x40)\n      dup1\n      swap2\n      sub\n      swap1\n      return\n        /* \"tc_arb.sol\":3046:3145  function getBalance() public view returns (uint256) {... */\n    tag_9:\n        /* \"tc_arb.sol\":3089:3096  uint256 */\n      0x00\n        /* \"tc_arb.sol\":3116:3137  address(this).balance */\n      selfbalance\n        /* \"tc_arb.sol\":3109:3137  return address(this).balance */\n      swap1\n      pop\n        /* \"tc_arb.sol\":3046:3145  function getBalance() public view returns (uint256) {... */\n      swap1\n      jump\t// out\n        /* \"tc_arb.sol\":2777:2966  function withdraw() public onlyOwner {... */\n    tag_14:\n        /* \"tc_arb.sol\":1289:1294  owner */\n      0x00\n      dup1\n      sload\n      swap1\n      0x0100\n      exp\n      swap1\n      div\n      0xffffffffffffffffffffffffffffffffffffffff\n      and\n        /* \"tc_arb.sol\":1275:1294  msg.sender == owner */\n      0xffffffffffffffffffffffffffffffffffffffff\n      and\n        /* \"tc_arb.sol\":1275:1285  msg.sender */\n      caller\n        /* \"tc_arb.sol\":1275:1294  msg.sender == owner */\n      0xffffffffffffffffffffffffffffffffffffffff\n      and\n      eq\n        /* \"tc_arb.sol\":1267:1343  require(msg.sender == owner, \"Solo el propietario puede retirar los fondos\") */\n      tag_31\n      jumpi\n      mload(0x40)\n      0x08c379a000000000000000000000000000000000000000000000000000000000\n      dup2\n      mstore\n      0x04\n      add\n      tag_32\n      swap1\n      tag_33\n      jump\t// in\n    tag_32:\n      mload(0x40)\n      dup1\n      swap2\n      sub\n      swap1\n      revert\n    tag_31:\n        /* \"tc_arb.sol\":2825:2837  uint balance */\n      0x00\n        /* \"tc_arb.sol\":2840:2861  address(this).balance */\n      selfbalance\n        /* \"tc_arb.sol\":2825:2861  uint balance = address(this).balance */\n      swap1\n      pop\n        /* \"tc_arb.sol\":2890:2891  0 */\n      0x00\n        /* \"tc_arb.sol\":2880:2887  balance */\n      dup2\n        /* \"tc_arb.sol\":2880:2891  balance > 0 */\n      gt\n        /* \"tc_arb.sol\":2872:2924  require(balance > 0, \"No hay fondos en el contrato\") */\n      tag_35\n      jumpi\n      mload(0x40)\n      0x08c379a000000000000000000000000000000000000000000000000000000000\n      dup2\n      mstore\n      0x04\n      add\n      tag_36\n      swap1\n      tag_37\n      jump\t// in\n    tag_36:\n      mload(0x40)\n      dup1\n      swap2\n      sub\n      swap1\n      revert\n    tag_35:\n        /* \"tc_arb.sol\":2935:2940  owner */\n      0x00\n      dup1\n      sload\n      swap1\n      0x0100\n      exp\n      swap1\n      div\n      0xffffffffffffffffffffffffffffffffffffffff\n      and\n        /* \"tc_arb.sol\":2935:2949  owner.transfer */\n      0xffffffffffffffffffffffffffffffffffffffff\n      and\n        /* \"tc_arb.sol\":2935:2958  owner.transfer(balance) */\n      0x08fc\n        /* \"tc_arb.sol\":2950:2957  balance */\n      dup3\n        /* \"tc_arb.sol\":2935:2958  owner.transfer(balance) */\n      swap1\n      dup2\n      iszero\n      mul\n      swap1\n      mload(0x40)\n      0x00\n      mload(0x40)\n      dup1\n      dup4\n      sub\n      dup2\n      dup6\n      dup9\n      dup9\n      call\n      swap4\n      pop\n      pop\n      pop\n      pop\n      iszero\n      dup1\n      iszero\n      tag_39\n      jumpi\n      returndatasize\n      0x00\n      dup1\n      returndatacopy\n      revert(0x00, returndatasize)\n    tag_39:\n      pop\n        /* \"tc_arb.sol\":2814:2966  {... */\n      pop\n        /* \"tc_arb.sol\":2777:2966  function withdraw() public onlyOwner {... */\n      jump\t// out\n        /* \"tc_arb.sol\":811:827  Data public data */\n    tag_17:\n      0x01\n      dup1\n      0x00\n      add\n      dup1\n      sload\n      tag_40\n      swap1\n      tag_41\n      jump\t// in\n    tag_40:\n      dup1\n      0x1f\n      add\n      0x20\n      dup1\n      swap2\n      div\n      mul\n      0x20\n      add\n      mload(0x40)\n      swap1\n      dup2\n      add\n      0x40\n      mstore\n      dup1\n      swap3\n      swap2\n      swap1\n      dup2\n      dup2\n      mstore\n      0x20\n      add\n      dup3\n      dup1\n      sload\n      tag_42\n      swap1\n      tag_41\n      jump\t// in\n    tag_42:\n      dup1\n      iszero\n      tag_43\n      jumpi\n      dup1\n      0x1f\n      lt\n      tag_44\n      jumpi\n      0x0100\n      dup1\n      dup4\n      sload\n      div\n      mul\n      dup4\n      mstore\n      swap2\n      0x20\n      add\n      swap2\n      jump(tag_43)\n    tag_44:\n      dup3\n      add\n      swap2\n      swap1\n      0x00\n      mstore\n      keccak256(0x00, 0x20)\n      swap1\n    tag_45:\n      dup2\n      sload\n      dup2\n      mstore\n      swap1\n      0x01\n      add\n      swap1\n      0x20\n      add\n      dup1\n      dup4\n      gt\n      tag_45\n      jumpi\n      dup3\n      swap1\n      sub\n      0x1f\n      and\n      dup3\n      add\n      swap2\n    tag_43:\n      pop\n      pop\n      pop\n      pop\n      pop\n      swap1\n      dup1\n      0x01\n      add\n      dup1\n      sload\n      tag_46\n      swap1\n      tag_41\n      jump\t// in\n    tag_46:\n      dup1\n      0x1f\n      add\n      0x20\n      dup1\n      swap2\n      div\n      mul\n      0x20\n      add\n      mload(0x40)\n      swap1\n      dup2\n      add\n      0x40\n      mstore\n      dup1\n      swap3\n      swap2\n      swap1\n      dup2\n      dup2\n      mstore\n      0x20\n      add\n      dup3\n      dup1\n      sload\n      tag_47\n      swap1\n      tag_41\n      jump\t// in\n    tag_47:\n      dup1\n      iszero\n      tag_48\n      jumpi\n      dup1\n      0x1f\n      lt\n      tag_49\n      jumpi\n      0x0100\n      dup1\n      dup4\n      sload\n      div\n      mul\n      dup4\n      mstore\n      swap2\n      0x20\n      add\n      swap2\n      jump(tag_48)\n    tag_49:\n      dup3\n      add\n      swap2\n      swap1\n      0x00\n      mstore\n      keccak256(0x00, 0x20)\n      swap1\n    tag_50:\n      dup2\n      sload\n      dup2\n      mstore\n      swap1\n      0x01\n      add\n      swap1\n      0x20\n      add\n      dup1\n      dup4\n      gt\n      tag_50\n      jumpi\n      dup3\n      swap1\n      sub\n      0x1f\n      and\n      dup3\n      add\n      swap2\n    tag_48:\n      pop\n      pop\n      pop\n      pop\n      pop\n      swap1\n      dup1\n      0x02\n      add\n      dup1\n      sload\n      tag_51\n      swap1\n      tag_41\n      jump\t// in\n    tag_51:\n      dup1\n      0x1f\n      add\n      0x20\n      dup1\n      swap2\n      div\n      mul\n      0x20\n      add\n      mload(0x40)\n      swap1\n      dup2\n      add\n      0x40\n      mstore\n      dup1\n      swap3\n      swap2\n      swap1\n      dup2\n      dup2\n      mstore\n      0x20\n      add\n      dup3\n      dup1\n      sload\n      tag_52\n      swap1\n      tag_41\n      jump\t// in\n    tag_52:\n      dup1\n      iszero\n      tag_53\n      jumpi\n      dup1\n      0x1f\n      lt\n      tag_54\n      jumpi\n      0x0100\n      dup1\n      dup4\n      sload\n      div\n      mul\n      dup4\n      mstore\n      swap2\n      0x20\n      add\n      swap2\n      jump(tag_53)\n    tag_54:\n      dup3\n      add\n      swap2\n      swap1\n      0x00\n      mstore\n      keccak256(0x00, 0x20)\n      swap1\n    tag_55:\n      dup2\n      sload\n      dup2\n      mstore\n      swap1\n      0x01\n      add\n      swap1\n      0x20\n      add\n      dup1\n      dup4\n      gt\n      tag_55\n      jumpi\n      dup3\n      swap1\n      sub\n      0x1f\n      and\n      dup3\n      add\n      swap2\n    tag_53:\n      pop\n      pop\n      pop\n      pop\n      pop\n      swap1\n      dup1\n      0x03\n      add\n      dup1\n      sload\n      tag_56\n      swap1\n      tag_41\n      jump\t// in\n    tag_56:\n      dup1\n      0x1f\n      add\n      0x20\n      dup1\n      swap2\n      div\n      mul\n      0x20\n      add\n      mload(0x40)\n      swap1\n      dup2\n      add\n      0x40\n      mstore\n      dup1\n      swap3\n      swap2\n      swap1\n      dup2\n      dup2\n      mstore\n      0x20\n      add\n      dup3\n      dup1\n      sload\n      tag_57\n      swap1\n      tag_41\n      jump\t// in\n    tag_57:\n      dup1\n      iszero\n      tag_58\n      jumpi\n      dup1\n      0x1f\n      lt\n      tag_59\n      jumpi\n      0x0100\n      dup1\n      dup4\n      sload\n      div\n      mul\n      dup4\n      mstore\n      swap2\n      0x20\n      add\n      swap2\n      jump(tag_58)\n    tag_59:\n      dup3\n      add\n      swap2\n      swap1\n      0x00\n      mstore\n      keccak256(0x00, 0x20)\n      swap1\n    tag_60:\n      dup2\n      sload\n      dup2\n      mstore\n      swap1\n      0x01\n      add\n      swap1\n      0x20\n      add\n      dup1\n      dup4\n      gt\n      tag_60\n      jumpi\n      dup3\n      swap1\n      sub\n      0x1f\n      and\n      dup3\n      add\n      swap2\n    tag_58:\n      pop\n      pop\n      pop\n      pop\n      pop\n      swap1\n      dup1\n      0x04\n      add\n      dup1\n      sload\n      tag_61\n      swap1\n      tag_41\n      jump\t// in\n    tag_61:\n      dup1\n      0x1f\n      add\n      0x20\n      dup1\n      swap2\n      div\n      mul\n      0x20\n      add\n      mload(0x40)\n      swap1\n      dup2\n      add\n      0x40\n      mstore\n      dup1\n      swap3\n      swap2\n      swap1\n      dup2\n      dup2\n      mstore\n      0x20\n      add\n      dup3\n      dup1\n      sload\n      tag_62\n      swap1\n      tag_41\n      jump\t// in\n    tag_62:\n      dup1\n      iszero\n      tag_63\n      jumpi\n      dup1\n      0x1f\n      lt\n      tag_64\n      jumpi\n      0x0100\n      dup1\n      dup4\n      sload\n      div\n      mul\n      dup4\n      mstore\n      swap2\n      0x20\n      add\n      swap2\n      jump(tag_63)\n    tag_64:\n      dup3\n      add\n      swap2\n      swap1\n      0x00\n      mstore\n      keccak256(0x00, 0x20)\n      swap1\n    tag_65:\n      dup2\n      sload\n      dup2\n      mstore\n      swap1\n      0x01\n      add\n      swap1\n      0x20\n      add\n      dup1\n      dup4\n      gt\n      tag_65\n      jumpi\n      dup3\n      swap1\n      sub\n      0x1f\n      and\n      dup3\n      add\n      swap2\n    tag_63:\n      pop\n      pop\n      pop\n      pop\n      pop\n      swap1\n      dup1\n      0x05\n      add\n      dup1\n      sload\n      tag_66\n      swap1\n      tag_41\n      jump\t// in\n    tag_66:\n      dup1\n      0x1f\n      add\n      0x20\n      dup1\n      swap2\n      div\n      mul\n      0x20\n      add\n      mload(0x40)\n      swap1\n      dup2\n      add\n      0x40\n      mstore\n      dup1\n      swap3\n      swap2\n      swap1\n      dup2\n      dup2\n      mstore\n      0x20\n      add\n      dup3\n      dup1\n      sload\n      tag_67\n      swap1\n      tag_41\n      jump\t// in\n    tag_67:\n      dup1\n      iszero\n      tag_68\n      jumpi\n      dup1\n      0x1f\n      lt\n      tag_69\n      jumpi\n      0x0100\n      dup1\n      dup4\n      sload\n      div\n      mul\n      dup4\n      mstore\n      swap2\n      0x20\n      add\n      swap2\n      jump(tag_68)\n    tag_69:\n      dup3\n      add\n      swap2\n      swap1\n      0x00\n      mstore\n      keccak256(0x00, 0x20)\n      swap1\n    tag_70:\n      dup2\n      sload\n      dup2\n      mstore\n      swap1\n      0x01\n      add\n      swap1\n      0x20\n      add\n      dup1\n      dup4\n      gt\n      tag_70\n      jumpi\n      dup3\n      swap1\n      sub\n      0x1f\n      and\n      dup3\n      add\n      swap2\n    tag_68:\n      pop\n      pop\n      pop\n      pop\n      pop\n      swap1\n      dup1\n      0x06\n      add\n      0x00\n      swap1\n      sload\n      swap1\n      0x0100\n      exp\n      swap1\n      div\n      0x00\n      signextend\n      swap1\n      dup1\n      0x06\n      add\n      0x01\n      swap1\n      sload\n      swap1\n      0x0100\n      exp\n      swap1\n      div\n      0xffffffffffffffffffffffffffffffffffffffff\n      and\n      swap1\n      pop\n      dup9\n      jump\t// out\n        /* \"tc_arb.sol\":1802:2716  function pushData(string memory _date,... */\n    tag_23:\n        /* \"tc_arb.sol\":2137:2153  1000000000000000 */\n      0x038d7ea4c68000\n        /* \"tc_arb.sol\":1566:1572  amount */\n      dup1\n        /* \"tc_arb.sol\":1553:1562  msg.value */\n      callvalue\n        /* \"tc_arb.sol\":1553:1572  msg.value >= amount */\n      lt\n      iszero\n        /* \"tc_arb.sol\":1545:1604  require(msg.value >= amount, \"No tiene saldo para ejcutar\") */\n      tag_72\n      jumpi\n      mload(0x40)\n      0x08c379a000000000000000000000000000000000000000000000000000000000\n      dup2\n      mstore\n      0x04\n      add\n      tag_73\n      swap1\n      tag_74\n      jump\t// in\n    tag_73:\n      mload(0x40)\n      dup1\n      swap2\n      sub\n      swap1\n      revert\n    tag_72:\n        /* \"tc_arb.sol\":2172:2398  Data(_date,... */\n      mload(0x40)\n      dup1\n      0x0100\n      add\n      0x40\n      mstore\n      dup1\n        /* \"tc_arb.sol\":2177:2182  _date */\n      dup10\n        /* \"tc_arb.sol\":2172:2398  Data(_date,... */\n      dup2\n      mstore\n      0x20\n      add\n        /* \"tc_arb.sol\":2204:2218  _delivery_date */\n      dup9\n        /* \"tc_arb.sol\":2172:2398  Data(_date,... */\n      dup2\n      mstore\n      0x20\n      add\n        /* \"tc_arb.sol\":2240:2248  _product */\n      dup8\n        /* \"tc_arb.sol\":2172:2398  Data(_date,... */\n      dup2\n      mstore\n      0x20\n      add\n        /* \"tc_arb.sol\":2270:2276  _price */\n      dup7\n        /* \"tc_arb.sol\":2172:2398  Data(_date,... */\n      dup2\n      mstore\n      0x20\n      add\n        /* \"tc_arb.sol\":2298:2303  _code */\n      dup6\n        /* \"tc_arb.sol\":2172:2398  Data(_date,... */\n      dup2\n      mstore\n      0x20\n      add\n        /* \"tc_arb.sol\":2325:2336  _cel_number */\n      dup5\n        /* \"tc_arb.sol\":2172:2398  Data(_date,... */\n      dup2\n      mstore\n      0x20\n      add\n        /* \"tc_arb.sol\":2358:2365  _status */\n      dup4\n        /* \"tc_arb.sol\":2172:2398  Data(_date,... */\n      0x00\n      signextend\n      dup2\n      mstore\n      0x20\n      add\n        /* \"tc_arb.sol\":2387:2397  msg.sender */\n      caller\n        /* \"tc_arb.sol\":2172:2398  Data(_date,... */\n      0xffffffffffffffffffffffffffffffffffffffff\n      and\n      dup2\n      mstore\n      pop\n        /* \"tc_arb.sol\":2165:2169  data */\n      0x01\n        /* \"tc_arb.sol\":2165:2398  data = Data(_date,... */\n      0x00\n      dup3\n      add\n      mload\n      dup2\n      0x00\n      add\n      swap1\n      dup2\n      tag_76\n      swap2\n      swap1\n      tag_77\n      jump\t// in\n    tag_76:\n      pop\n      0x20\n      dup3\n      add\n      mload\n      dup2\n      0x01\n      add\n      swap1\n      dup2\n      tag_78\n      swap2\n      swap1\n      tag_77\n      jump\t// in\n    tag_78:\n      pop\n      0x40\n      dup3\n      add\n      mload\n      dup2\n      0x02\n      add\n      swap1\n      dup2\n      tag_79\n      swap2\n      swap1\n      tag_77\n      jump\t// in\n    tag_79:\n      pop\n      0x60\n      dup3\n      add\n      mload\n      dup2\n      0x03\n      add\n      swap1\n      dup2\n      tag_80\n      swap2\n      swap1\n      tag_77\n      jump\t// in\n    tag_80:\n      pop\n      0x80\n      dup3\n      add\n      mload\n      dup2\n      0x04\n      add\n      swap1\n      dup2\n      tag_81\n      swap2\n      swap1\n      tag_77\n      jump\t// in\n    tag_81:\n      pop\n      0xa0\n      dup3\n      add\n      mload\n      dup2\n      0x05\n      add\n      swap1\n      dup2\n      tag_82\n      swap2\n      swap1\n      tag_77\n      jump\t// in\n    tag_82:\n      pop\n      0xc0\n      dup3\n      add\n      mload\n      dup2\n      0x06\n      add\n      exp(0x0100, 0x00)\n      dup2\n      sload\n      dup2\n      0xff\n      mul\n      not\n      and\n      swap1\n      dup4\n      0x00\n      signextend\n      0xff\n      and\n      mul\n      or\n      swap1\n      sstore\n      pop\n      0xe0\n      dup3\n      add\n      mload\n      dup2\n      0x06\n      add\n      exp(0x0100, 0x01)\n      dup2\n      sload\n      dup2\n      0xffffffffffffffffffffffffffffffffffffffff\n      mul\n      not\n      and\n      swap1\n      dup4\n      0xffffffffffffffffffffffffffffffffffffffff\n      and\n      mul\n      or\n      swap1\n      sstore\n      pop\n      swap1\n      pop\n      pop\n        /* \"tc_arb.sol\":2468:2704  newData(_date,... */\n      0x870247eb151fd35c4907322d059c22cbe7eb7930b7b7116d4a107cbbb5378d12\n        /* \"tc_arb.sol\":2476:2481  _date */\n      dup9\n        /* \"tc_arb.sol\":2504:2518  _delivery_date */\n      dup9\n        /* \"tc_arb.sol\":2541:2549  _product */\n      dup9\n        /* \"tc_arb.sol\":2572:2578  _price */\n      dup9\n        /* \"tc_arb.sol\":2601:2606  _code */\n      dup9\n        /* \"tc_arb.sol\":2629:2640  _cel_number */\n      dup9\n        /* \"tc_arb.sol\":2663:2670  _status */\n      dup9\n        /* \"tc_arb.sol\":2693:2703  msg.sender */\n      caller\n        /* \"tc_arb.sol\":2468:2704  newData(_date,... */\n      mload(0x40)\n      tag_83\n      swap9\n      swap8\n      swap7\n      swap6\n      swap5\n      swap4\n      swap3\n      swap2\n      swap1\n      tag_19\n      jump\t// in\n    tag_83:\n      mload(0x40)\n      dup1\n      swap2\n      sub\n      swap1\n      log1\n        /* \"tc_arb.sol\":1802:2716  function pushData(string memory _date,... */\n      pop\n      pop\n      pop\n      pop\n      pop\n      pop\n      pop\n      pop\n      jump\t// out\n        /* \"tc_arb.sol\":155:183  address payable public owner */\n    tag_26:\n      0x00\n      dup1\n      sload\n      swap1\n      0x0100\n      exp\n      swap1\n      div\n      0xffffffffffffffffffffffffffffffffffffffff\n      and\n      dup2\n      jump\t// out\n        /* \"#utility.yul\":7:84   */\n    tag_84:\n        /* \"#utility.yul\":44:51   */\n      0x00\n        /* \"#utility.yul\":73:78   */\n      dup2\n        /* \"#utility.yul\":62:78   */\n      swap1\n      pop\n        /* \"#utility.yul\":7:84   */\n      swap2\n      swap1\n      pop\n      jump\t// out\n        /* \"#utility.yul\":90:208   */\n    tag_85:\n        /* \"#utility.yul\":177:201   */\n      tag_137\n        /* \"#utility.yul\":195:200   */\n      dup2\n        /* \"#utility.yul\":177:201   */\n      tag_84\n      jump\t// in\n    tag_137:\n        /* \"#utility.yul\":172:175   */\n      dup3\n        /* \"#utility.yul\":165:202   */\n      mstore\n        /* \"#utility.yul\":90:208   */\n      pop\n      pop\n      jump\t// out\n        /* \"#utility.yul\":214:436   */\n    tag_11:\n        /* \"#utility.yul\":307:311   */\n      0x00\n        /* \"#utility.yul\":345:347   */\n      0x20\n        /* \"#utility.yul\":334:343   */\n      dup3\n        /* \"#utility.yul\":330:348   */\n      add\n        /* \"#utility.yul\":322:348   */\n      swap1\n      pop\n        /* \"#utility.yul\":358:429   */\n      tag_139\n        /* \"#utility.yul\":426:427   */\n      0x00\n        /* \"#utility.yul\":415:424   */\n      dup4\n        /* \"#utility.yul\":411:428   */\n      add\n        /* \"#utility.yul\":402:408   */\n      dup5\n        /* \"#utility.yul\":358:429   */\n      tag_85\n      jump\t// in\n    tag_139:\n        /* \"#utility.yul\":214:436   */\n      swap3\n      swap2\n      pop\n      pop\n      jump\t// out\n        /* \"#utility.yul\":442:541   */\n    tag_86:\n        /* \"#utility.yul\":494:500   */\n      0x00\n        /* \"#utility.yul\":528:533   */\n      dup2\n        /* \"#utility.yul\":522:534   */\n      mload\n        /* \"#utility.yul\":512:534   */\n      swap1\n      pop\n        /* \"#utility.yul\":442:541   */\n      swap2\n      swap1\n      pop\n      jump\t// out\n        /* \"#utility.yul\":547:716   */\n    tag_87:\n        /* \"#utility.yul\":631:642   */\n      0x00\n        /* \"#utility.yul\":665:671   */\n      dup3\n        /* \"#utility.yul\":660:663   */\n      dup3\n        /* \"#utility.yul\":653:672   */\n      mstore\n        /* \"#utility.yul\":705:709   */\n      0x20\n        /* \"#utility.yul\":700:703   */\n      dup3\n        /* \"#utility.yul\":696:710   */\n      add\n        /* \"#utility.yul\":681:710   */\n      swap1\n      pop\n        /* \"#utility.yul\":547:716   */\n      swap3\n      swap2\n      pop\n      pop\n      jump\t// out\n        /* \"#utility.yul\":722:968   */\n    tag_88:\n        /* \"#utility.yul\":803:804   */\n      0x00\n        /* \"#utility.yul\":813:926   */\n    tag_143:\n        /* \"#utility.yul\":827:833   */\n      dup4\n        /* \"#utility.yul\":824:825   */\n      dup2\n        /* \"#utility.yul\":821:834   */\n      lt\n        /* \"#utility.yul\":813:926   */\n      iszero\n      tag_145\n      jumpi\n        /* \"#utility.yul\":912:913   */\n      dup1\n        /* \"#utility.yul\":907:910   */\n      dup3\n        /* \"#utility.yul\":903:914   */\n      add\n        /* \"#utility.yul\":897:915   */\n      mload\n        /* \"#utility.yul\":893:894   */\n      dup2\n        /* \"#utility.yul\":888:891   */\n      dup5\n        /* \"#utility.yul\":884:895   */\n      add\n        /* \"#utility.yul\":877:916   */\n      mstore\n        /* \"#utility.yul\":849:851   */\n      0x20\n        /* \"#utility.yul\":846:847   */\n      dup2\n        /* \"#utility.yul\":842:852   */\n      add\n        /* \"#utility.yul\":837:852   */\n      swap1\n      pop\n        /* \"#utility.yul\":813:926   */\n      jump(tag_143)\n    tag_145:\n        /* \"#utility.yul\":960:961   */\n      0x00\n        /* \"#utility.yul\":951:957   */\n      dup5\n        /* \"#utility.yul\":946:949   */\n      dup5\n        /* \"#utility.yul\":942:958   */\n      add\n        /* \"#utility.yul\":935:962   */\n      mstore\n        /* \"#utility.yul\":784:968   */\n      pop\n        /* \"#utility.yul\":722:968   */\n      pop\n      pop\n      pop\n      jump\t// out\n        /* \"#utility.yul\":974:1076   */\n    tag_89:\n        /* \"#utility.yul\":1015:1021   */\n      0x00\n        /* \"#utility.yul\":1066:1068   */\n      0x1f\n        /* \"#utility.yul\":1062:1069   */\n      not\n        /* \"#utility.yul\":1057:1059   */\n      0x1f\n        /* \"#utility.yul\":1050:1055   */\n      dup4\n        /* \"#utility.yul\":1046:1060   */\n      add\n        /* \"#utility.yul\":1042:1070   */\n      and\n        /* \"#utility.yul\":1032:1070   */\n      swap1\n      pop\n        /* \"#utility.yul\":974:1076   */\n      swap2\n      swap1\n      pop\n      jump\t// out\n        /* \"#utility.yul\":1082:1459   */\n    tag_90:\n        /* \"#utility.yul\":1170:1173   */\n      0x00\n        /* \"#utility.yul\":1198:1237   */\n      tag_148\n        /* \"#utility.yul\":1231:1236   */\n      dup3\n        /* \"#utility.yul\":1198:1237   */\n      tag_86\n      jump\t// in\n    tag_148:\n        /* \"#utility.yul\":1253:1324   */\n      tag_149\n        /* \"#utility.yul\":1317:1323   */\n      dup2\n        /* \"#utility.yul\":1312:1315   */\n      dup6\n        /* \"#utility.yul\":1253:1324   */\n      tag_87\n      jump\t// in\n    tag_149:\n        /* \"#utility.yul\":1246:1324   */\n      swap4\n      pop\n        /* \"#utility.yul\":1333:1398   */\n      tag_150\n        /* \"#utility.yul\":1391:1397   */\n      dup2\n        /* \"#utility.yul\":1386:1389   */\n      dup6\n        /* \"#utility.yul\":1379:1383   */\n      0x20\n        /* \"#utility.yul\":1372:1377   */\n      dup7\n        /* \"#utility.yul\":1368:1384   */\n      add\n        /* \"#utility.yul\":1333:1398   */\n      tag_88\n      jump\t// in\n    tag_150:\n        /* \"#utility.yul\":1423:1452   */\n      tag_151\n        /* \"#utility.yul\":1445:1451   */\n      dup2\n        /* \"#utility.yul\":1423:1452   */\n      tag_89\n      jump\t// in\n    tag_151:\n        /* \"#utility.yul\":1418:1421   */\n      dup5\n        /* \"#utility.yul\":1414:1453   */\n      add\n        /* \"#utility.yul\":1407:1453   */\n      swap2\n      pop\n        /* \"#utility.yul\":1174:1459   */\n      pop\n        /* \"#utility.yul\":1082:1459   */\n      swap3\n      swap2\n      pop\n      pop\n      jump\t// out\n        /* \"#utility.yul\":1465:1554   */\n    tag_91:\n        /* \"#utility.yul\":1499:1506   */\n      0x00\n        /* \"#utility.yul\":1542:1547   */\n      dup2\n        /* \"#utility.yul\":1539:1540   */\n      0x00\n        /* \"#utility.yul\":1528:1548   */\n      signextend\n        /* \"#utility.yul\":1517:1548   */\n      swap1\n      pop\n        /* \"#utility.yul\":1465:1554   */\n      swap2\n      swap1\n      pop\n      jump\t// out\n        /* \"#utility.yul\":1560:1669   */\n    tag_92:\n        /* \"#utility.yul\":1641:1662   */\n      tag_154\n        /* \"#utility.yul\":1656:1661   */\n      dup2\n        /* \"#utility.yul\":1641:1662   */\n      tag_91\n      jump\t// in\n    tag_154:\n        /* \"#utility.yul\":1636:1639   */\n      dup3\n        /* \"#utility.yul\":1629:1663   */\n      mstore\n        /* \"#utility.yul\":1560:1669   */\n      pop\n      pop\n      jump\t// out\n        /* \"#utility.yul\":1675:1801   */\n    tag_93:\n        /* \"#utility.yul\":1712:1719   */\n      0x00\n        /* \"#utility.yul\":1752:1794   */\n      0xffffffffffffffffffffffffffffffffffffffff\n        /* \"#utility.yul\":1745:1750   */\n      dup3\n        /* \"#utility.yul\":1741:1795   */\n      and\n        /* \"#utility.yul\":1730:1795   */\n      swap1\n      pop\n        /* \"#utility.yul\":1675:1801   */\n      swap2\n      swap1\n      pop\n      jump\t// out\n        /* \"#utility.yul\":1807:1903   */\n    tag_94:\n        /* \"#utility.yul\":1844:1851   */\n      0x00\n        /* \"#utility.yul\":1873:1897   */\n      tag_157\n        /* \"#utility.yul\":1891:1896   */\n      dup3\n        /* \"#utility.yul\":1873:1897   */\n      tag_93\n      jump\t// in\n    tag_157:\n        /* \"#utility.yul\":1862:1897   */\n      swap1\n      pop\n        /* \"#utility.yul\":1807:1903   */\n      swap2\n      swap1\n      pop\n      jump\t// out\n        /* \"#utility.yul\":1909:2027   */\n    tag_95:\n        /* \"#utility.yul\":1996:2020   */\n      tag_159\n        /* \"#utility.yul\":2014:2019   */\n      dup2\n        /* \"#utility.yul\":1996:2020   */\n      tag_94\n      jump\t// in\n    tag_159:\n        /* \"#utility.yul\":1991:1994   */\n      dup3\n        /* \"#utility.yul\":1984:2021   */\n      mstore\n        /* \"#utility.yul\":1909:2027   */\n      pop\n      pop\n      jump\t// out\n        /* \"#utility.yul\":2033:3564   */\n    tag_19:\n        /* \"#utility.yul\":2436:2440   */\n      0x00\n        /* \"#utility.yul\":2474:2477   */\n      0x0100\n        /* \"#utility.yul\":2463:2472   */\n      dup3\n        /* \"#utility.yul\":2459:2478   */\n      add\n        /* \"#utility.yul\":2451:2478   */\n      swap1\n      pop\n        /* \"#utility.yul\":2524:2533   */\n      dup2\n        /* \"#utility.yul\":2518:2522   */\n      dup2\n        /* \"#utility.yul\":2514:2534   */\n      sub\n        /* \"#utility.yul\":2510:2511   */\n      0x00\n        /* \"#utility.yul\":2499:2508   */\n      dup4\n        /* \"#utility.yul\":2495:2512   */\n      add\n        /* \"#utility.yul\":2488:2535   */\n      mstore\n        /* \"#utility.yul\":2552:2630   */\n      tag_161\n        /* \"#utility.yul\":2625:2629   */\n      dup2\n        /* \"#utility.yul\":2616:2622   */\n      dup12\n        /* \"#utility.yul\":2552:2630   */\n      tag_90\n      jump\t// in\n    tag_161:\n        /* \"#utility.yul\":2544:2630   */\n      swap1\n      pop\n        /* \"#utility.yul\":2677:2686   */\n      dup2\n        /* \"#utility.yul\":2671:2675   */\n      dup2\n        /* \"#utility.yul\":2667:2687   */\n      sub\n        /* \"#utility.yul\":2662:2664   */\n      0x20\n        /* \"#utility.yul\":2651:2660   */\n      dup4\n        /* \"#utility.yul\":2647:2665   */\n      add\n        /* \"#utility.yul\":2640:2688   */\n      mstore\n        /* \"#utility.yul\":2705:2783   */\n      tag_162\n        /* \"#utility.yul\":2778:2782   */\n      dup2\n        /* \"#utility.yul\":2769:2775   */\n      dup11\n        /* \"#utility.yul\":2705:2783   */\n      tag_90\n      jump\t// in\n    tag_162:\n        /* \"#utility.yul\":2697:2783   */\n      swap1\n      pop\n        /* \"#utility.yul\":2830:2839   */\n      dup2\n        /* \"#utility.yul\":2824:2828   */\n      dup2\n        /* \"#utility.yul\":2820:2840   */\n      sub\n        /* \"#utility.yul\":2815:2817   */\n      0x40\n        /* \"#utility.yul\":2804:2813   */\n      dup4\n        /* \"#utility.yul\":2800:2818   */\n      add\n        /* \"#utility.yul\":2793:2841   */\n      mstore\n        /* \"#utility.yul\":2858:2936   */\n      tag_163\n        /* \"#utility.yul\":2931:2935   */\n      dup2\n        /* \"#utility.yul\":2922:2928   */\n      dup10\n        /* \"#utility.yul\":2858:2936   */\n      tag_90\n      jump\t// in\n    tag_163:\n        /* \"#utility.yul\":2850:2936   */\n      swap1\n      pop\n        /* \"#utility.yul\":2983:2992   */\n      dup2\n        /* \"#utility.yul\":2977:2981   */\n      dup2\n        /* \"#utility.yul\":2973:2993   */\n      sub\n        /* \"#utility.yul\":2968:2970   */\n      0x60\n        /* \"#utility.yul\":2957:2966   */\n      dup4\n        /* \"#utility.yul\":2953:2971   */\n      add\n        /* \"#utility.yul\":2946:2994   */\n      mstore\n        /* \"#utility.yul\":3011:3089   */\n      tag_164\n        /* \"#utility.yul\":3084:3088   */\n      dup2\n        /* \"#utility.yul\":3075:3081   */\n      dup9\n        /* \"#utility.yul\":3011:3089   */\n      tag_90\n      jump\t// in\n    tag_164:\n        /* \"#utility.yul\":3003:3089   */\n      swap1\n      pop\n        /* \"#utility.yul\":3137:3146   */\n      dup2\n        /* \"#utility.yul\":3131:3135   */\n      dup2\n        /* \"#utility.yul\":3127:3147   */\n      sub\n        /* \"#utility.yul\":3121:3124   */\n      0x80\n        /* \"#utility.yul\":3110:3119   */\n      dup4\n        /* \"#utility.yul\":3106:3125   */\n      add\n        /* \"#utility.yul\":3099:3148   */\n      mstore\n        /* \"#utility.yul\":3165:3243   */\n      tag_165\n        /* \"#utility.yul\":3238:3242   */\n      dup2\n        /* \"#utility.yul\":3229:3235   */\n      dup8\n        /* \"#utility.yul\":3165:3243   */\n      tag_90\n      jump\t// in\n    tag_165:\n        /* \"#utility.yul\":3157:3243   */\n      swap1\n      pop\n        /* \"#utility.yul\":3291:3300   */\n      dup2\n        /* \"#utility.yul\":3285:3289   */\n      dup2\n        /* \"#utility.yul\":3281:3301   */\n      sub\n        /* \"#utility.yul\":3275:3278   */\n      0xa0\n        /* \"#utility.yul\":3264:3273   */\n      dup4\n        /* \"#utility.yul\":3260:3279   */\n      add\n        /* \"#utility.yul\":3253:3302   */\n      mstore\n        /* \"#utility.yul\":3319:3397   */\n      tag_166\n        /* \"#utility.yul\":3392:3396   */\n      dup2\n        /* \"#utility.yul\":3383:3389   */\n      dup7\n        /* \"#utility.yul\":3319:3397   */\n      tag_90\n      jump\t// in\n    tag_166:\n        /* \"#utility.yul\":3311:3397   */\n      swap1\n      pop\n        /* \"#utility.yul\":3407:3474   */\n      tag_167\n        /* \"#utility.yul\":3469:3472   */\n      0xc0\n        /* \"#utility.yul\":3458:3467   */\n      dup4\n        /* \"#utility.yul\":3454:3473   */\n      add\n        /* \"#utility.yul\":3445:3451   */\n      dup6\n        /* \"#utility.yul\":3407:3474   */\n      tag_92\n      jump\t// in\n    tag_167:\n        /* \"#utility.yul\":3484:3557   */\n      tag_168\n        /* \"#utility.yul\":3552:3555   */\n      0xe0\n        /* \"#utility.yul\":3541:3550   */\n      dup4\n        /* \"#utility.yul\":3537:3556   */\n      add\n        /* \"#utility.yul\":3528:3534   */\n      dup5\n        /* \"#utility.yul\":3484:3557   */\n      tag_95\n      jump\t// in\n    tag_168:\n        /* \"#utility.yul\":2033:3564   */\n      swap10\n      swap9\n      pop\n      pop\n      pop\n      pop\n      pop\n      pop\n      pop\n      pop\n      pop\n      jump\t// out\n        /* \"#utility.yul\":3570:3645   */\n    tag_96:\n        /* \"#utility.yul\":3603:3609   */\n      0x00\n        /* \"#utility.yul\":3636:3638   */\n      0x40\n        /* \"#utility.yul\":3630:3639   */\n      mload\n        /* \"#utility.yul\":3620:3639   */\n      swap1\n      pop\n        /* \"#utility.yul\":3570:3645   */\n      swap1\n      jump\t// out\n        /* \"#utility.yul\":3651:3768   */\n    tag_97:\n        /* \"#utility.yul\":3760:3761   */\n      0x00\n        /* \"#utility.yul\":3757:3758   */\n      dup1\n        /* \"#utility.yul\":3750:3762   */\n      revert\n        /* \"#utility.yul\":3774:3891   */\n    tag_98:\n        /* \"#utility.yul\":3883:3884   */\n      0x00\n        /* \"#utility.yul\":3880:3881   */\n      dup1\n        /* \"#utility.yul\":3873:3885   */\n      revert\n        /* \"#utility.yul\":3897:4014   */\n    tag_99:\n        /* \"#utility.yul\":4006:4007   */\n      0x00\n        /* \"#utility.yul\":4003:4004   */\n      dup1\n        /* \"#utility.yul\":3996:4008   */\n      revert\n        /* \"#utility.yul\":4020:4137   */\n    tag_100:\n        /* \"#utility.yul\":4129:4130   */\n      0x00\n        /* \"#utility.yul\":4126:4127   */\n      dup1\n        /* \"#utility.yul\":4119:4131   */\n      revert\n        /* \"#utility.yul\":4143:4323   */\n    tag_101:\n        /* \"#utility.yul\":4191:4268   */\n      0x4e487b7100000000000000000000000000000000000000000000000000000000\n        /* \"#utility.yul\":4188:4189   */\n      0x00\n        /* \"#utility.yul\":4181:4269   */\n      mstore\n        /* \"#utility.yul\":4288:4292   */\n      0x41\n        /* \"#utility.yul\":4285:4286   */\n      0x04\n        /* \"#utility.yul\":4278:4293   */\n      mstore\n        /* \"#utility.yul\":4312:4316   */\n      0x24\n        /* \"#utility.yul\":4309:4310   */\n      0x00\n        /* \"#utility.yul\":4302:4317   */\n      revert\n        /* \"#utility.yul\":4329:4610   */\n    tag_102:\n        /* \"#utility.yul\":4412:4439   */\n      tag_176\n        /* \"#utility.yul\":4434:4438   */\n      dup3\n        /* \"#utility.yul\":4412:4439   */\n      tag_89\n      jump\t// in\n    tag_176:\n        /* \"#utility.yul\":4404:4410   */\n      dup2\n        /* \"#utility.yul\":4400:4440   */\n      add\n        /* \"#utility.yul\":4542:4548   */\n      dup2\n        /* \"#utility.yul\":4530:4540   */\n      dup2\n        /* \"#utility.yul\":4527:4549   */\n      lt\n        /* \"#utility.yul\":4506:4524   */\n      0xffffffffffffffff\n        /* \"#utility.yul\":4494:4504   */\n      dup3\n        /* \"#utility.yul\":4491:4525   */\n      gt\n        /* \"#utility.yul\":4488:4550   */\n      or\n        /* \"#utility.yul\":4485:4573   */\n      iszero\n      tag_177\n      jumpi\n        /* \"#utility.yul\":4553:4571   */\n      tag_178\n      tag_101\n      jump\t// in\n    tag_178:\n        /* \"#utility.yul\":4485:4573   */\n    tag_177:\n        /* \"#utility.yul\":4593:4603   */\n      dup1\n        /* \"#utility.yul\":4589:4591   */\n      0x40\n        /* \"#utility.yul\":4582:4604   */\n      mstore\n        /* \"#utility.yul\":4372:4610   */\n      pop\n        /* \"#utility.yul\":4329:4610   */\n      pop\n      pop\n      jump\t// out\n        /* \"#utility.yul\":4616:4745   */\n    tag_103:\n        /* \"#utility.yul\":4650:4656   */\n      0x00\n        /* \"#utility.yul\":4677:4697   */\n      tag_180\n      tag_96\n      jump\t// in\n    tag_180:\n        /* \"#utility.yul\":4667:4697   */\n      swap1\n      pop\n        /* \"#utility.yul\":4706:4739   */\n      tag_181\n        /* \"#utility.yul\":4734:4738   */\n      dup3\n        /* \"#utility.yul\":4726:4732   */\n      dup3\n        /* \"#utility.yul\":4706:4739   */\n      tag_102\n      jump\t// in\n    tag_181:\n        /* \"#utility.yul\":4616:4745   */\n      swap2\n      swap1\n      pop\n      jump\t// out\n        /* \"#utility.yul\":4751:5059   */\n    tag_104:\n        /* \"#utility.yul\":4813:4817   */\n      0x00\n        /* \"#utility.yul\":4903:4921   */\n      0xffffffffffffffff\n        /* \"#utility.yul\":4895:4901   */\n      dup3\n        /* \"#utility.yul\":4892:4922   */\n      gt\n        /* \"#utility.yul\":4889:4945   */\n      iszero\n      tag_183\n      jumpi\n        /* \"#utility.yul\":4925:4943   */\n      tag_184\n      tag_101\n      jump\t// in\n    tag_184:\n        /* \"#utility.yul\":4889:4945   */\n    tag_183:\n        /* \"#utility.yul\":4963:4992   */\n      tag_185\n        /* \"#utility.yul\":4985:4991   */\n      dup3\n        /* \"#utility.yul\":4963:4992   */\n      tag_89\n      jump\t// in\n    tag_185:\n        /* \"#utility.yul\":4955:4992   */\n      swap1\n      pop\n        /* \"#utility.yul\":5047:5051   */\n      0x20\n        /* \"#utility.yul\":5041:5045   */\n      dup2\n        /* \"#utility.yul\":5037:5052   */\n      add\n        /* \"#utility.yul\":5029:5052   */\n      swap1\n      pop\n        /* \"#utility.yul\":4751:5059   */\n      swap2\n      swap1\n      pop\n      jump\t// out\n        /* \"#utility.yul\":5065:5211   */\n    tag_105:\n        /* \"#utility.yul\":5162:5168   */\n      dup3\n        /* \"#utility.yul\":5157:5160   */\n      dup2\n        /* \"#utility.yul\":5152:5155   */\n      dup4\n        /* \"#utility.yul\":5139:5169   */\n      calldatacopy\n        /* \"#utility.yul\":5203:5204   */\n      0x00\n        /* \"#utility.yul\":5194:5200   */\n      dup4\n        /* \"#utility.yul\":5189:5192   */\n      dup4\n        /* \"#utility.yul\":5185:5201   */\n      add\n        /* \"#utility.yul\":5178:5205   */\n      mstore\n        /* \"#utility.yul\":5065:5211   */\n      pop\n      pop\n      pop\n      jump\t// out\n        /* \"#utility.yul\":5217:5642   */\n    tag_106:\n        /* \"#utility.yul\":5295:5300   */\n      0x00\n        /* \"#utility.yul\":5320:5386   */\n      tag_188\n        /* \"#utility.yul\":5336:5385   */\n      tag_189\n        /* \"#utility.yul\":5378:5384   */\n      dup5\n        /* \"#utility.yul\":5336:5385   */\n      tag_104\n      jump\t// in\n    tag_189:\n        /* \"#utility.yul\":5320:5386   */\n      tag_103\n      jump\t// in\n    tag_188:\n        /* \"#utility.yul\":5311:5386   */\n      swap1\n      pop\n        /* \"#utility.yul\":5409:5415   */\n      dup3\n        /* \"#utility.yul\":5402:5407   */\n      dup2\n        /* \"#utility.yul\":5395:5416   */\n      mstore\n        /* \"#utility.yul\":5447:5451   */\n      0x20\n        /* \"#utility.yul\":5440:5445   */\n      dup2\n        /* \"#utility.yul\":5436:5452   */\n      add\n        /* \"#utility.yul\":5485:5488   */\n      dup5\n        /* \"#utility.yul\":5476:5482   */\n      dup5\n        /* \"#utility.yul\":5471:5474   */\n      dup5\n        /* \"#utility.yul\":5467:5483   */\n      add\n        /* \"#utility.yul\":5464:5489   */\n      gt\n        /* \"#utility.yul\":5461:5573   */\n      iszero\n      tag_190\n      jumpi\n        /* \"#utility.yul\":5492:5571   */\n      tag_191\n      tag_100\n      jump\t// in\n    tag_191:\n        /* \"#utility.yul\":5461:5573   */\n    tag_190:\n        /* \"#utility.yul\":5582:5636   */\n      tag_192\n        /* \"#utility.yul\":5629:5635   */\n      dup5\n        /* \"#utility.yul\":5624:5627   */\n      dup3\n        /* \"#utility.yul\":5619:5622   */\n      dup6\n        /* \"#utility.yul\":5582:5636   */\n      tag_105\n      jump\t// in\n    tag_192:\n        /* \"#utility.yul\":5301:5642   */\n      pop\n        /* \"#utility.yul\":5217:5642   */\n      swap4\n      swap3\n      pop\n      pop\n      pop\n      jump\t// out\n        /* \"#utility.yul\":5662:6002   */\n    tag_107:\n        /* \"#utility.yul\":5718:5723   */\n      0x00\n        /* \"#utility.yul\":5767:5770   */\n      dup3\n        /* \"#utility.yul\":5760:5764   */\n      0x1f\n        /* \"#utility.yul\":5752:5758   */\n      dup4\n        /* \"#utility.yul\":5748:5765   */\n      add\n        /* \"#utility.yul\":5744:5771   */\n      slt\n        /* \"#utility.yul\":5734:5856   */\n      tag_194\n      jumpi\n        /* \"#utility.yul\":5775:5854   */\n      tag_195\n      tag_99\n      jump\t// in\n    tag_195:\n        /* \"#utility.yul\":5734:5856   */\n    tag_194:\n        /* \"#utility.yul\":5892:5898   */\n      dup2\n        /* \"#utility.yul\":5879:5899   */\n      calldataload\n        /* \"#utility.yul\":5917:5996   */\n      tag_196\n        /* \"#utility.yul\":5992:5995   */\n      dup5\n        /* \"#utility.yul\":5984:5990   */\n      dup3\n        /* \"#utility.yul\":5977:5981   */\n      0x20\n        /* \"#utility.yul\":5969:5975   */\n      dup7\n        /* \"#utility.yul\":5965:5982   */\n      add\n        /* \"#utility.yul\":5917:5996   */\n      tag_106\n      jump\t// in\n    tag_196:\n        /* \"#utility.yul\":5908:5996   */\n      swap2\n      pop\n        /* \"#utility.yul\":5724:6002   */\n      pop\n        /* \"#utility.yul\":5662:6002   */\n      swap3\n      swap2\n      pop\n      pop\n      jump\t// out\n        /* \"#utility.yul\":6008:6124   */\n    tag_108:\n        /* \"#utility.yul\":6078:6099   */\n      tag_198\n        /* \"#utility.yul\":6093:6098   */\n      dup2\n        /* \"#utility.yul\":6078:6099   */\n      tag_91\n      jump\t// in\n    tag_198:\n        /* \"#utility.yul\":6071:6076   */\n      dup2\n        /* \"#utility.yul\":6068:6100   */\n      eq\n        /* \"#utility.yul\":6058:6118   */\n      tag_199\n      jumpi\n        /* \"#utility.yul\":6114:6115   */\n      0x00\n        /* \"#utility.yul\":6111:6112   */\n      dup1\n        /* \"#utility.yul\":6104:6116   */\n      revert\n        /* \"#utility.yul\":6058:6118   */\n    tag_199:\n        /* \"#utility.yul\":6008:6124   */\n      pop\n      jump\t// out\n        /* \"#utility.yul\":6130:6263   */\n    tag_109:\n        /* \"#utility.yul\":6173:6178   */\n      0x00\n        /* \"#utility.yul\":6211:6217   */\n      dup2\n        /* \"#utility.yul\":6198:6218   */\n      calldataload\n        /* \"#utility.yul\":6189:6218   */\n      swap1\n      pop\n        /* \"#utility.yul\":6227:6257   */\n      tag_201\n        /* \"#utility.yul\":6251:6256   */\n      dup2\n        /* \"#utility.yul\":6227:6257   */\n      tag_108\n      jump\t// in\n    tag_201:\n        /* \"#utility.yul\":6130:6263   */\n      swap3\n      swap2\n      pop\n      pop\n      jump\t// out\n        /* \"#utility.yul\":6269:8546   */\n    tag_22:\n        /* \"#utility.yul\":6439:6445   */\n      0x00\n        /* \"#utility.yul\":6447:6453   */\n      dup1\n        /* \"#utility.yul\":6455:6461   */\n      0x00\n        /* \"#utility.yul\":6463:6469   */\n      dup1\n        /* \"#utility.yul\":6471:6477   */\n      0x00\n        /* \"#utility.yul\":6479:6485   */\n      dup1\n        /* \"#utility.yul\":6487:6493   */\n      0x00\n        /* \"#utility.yul\":6536:6539   */\n      0xe0\n        /* \"#utility.yul\":6524:6533   */\n      dup9\n        /* \"#utility.yul\":6515:6522   */\n      dup11\n        /* \"#utility.yul\":6511:6534   */\n      sub\n        /* \"#utility.yul\":6507:6540   */\n      slt\n        /* \"#utility.yul\":6504:6624   */\n      iszero\n      tag_203\n      jumpi\n        /* \"#utility.yul\":6543:6622   */\n      tag_204\n      tag_97\n      jump\t// in\n    tag_204:\n        /* \"#utility.yul\":6504:6624   */\n    tag_203:\n        /* \"#utility.yul\":6691:6692   */\n      0x00\n        /* \"#utility.yul\":6680:6689   */\n      dup9\n        /* \"#utility.yul\":6676:6693   */\n      add\n        /* \"#utility.yul\":6663:6694   */\n      calldataload\n        /* \"#utility.yul\":6721:6739   */\n      0xffffffffffffffff\n        /* \"#utility.yul\":6713:6719   */\n      dup2\n        /* \"#utility.yul\":6710:6740   */\n      gt\n        /* \"#utility.yul\":6707:6824   */\n      iszero\n      tag_205\n      jumpi\n        /* \"#utility.yul\":6743:6822   */\n      tag_206\n      tag_98\n      jump\t// in\n    tag_206:\n        /* \"#utility.yul\":6707:6824   */\n    tag_205:\n        /* \"#utility.yul\":6848:6911   */\n      tag_207\n        /* \"#utility.yul\":6903:6910   */\n      dup11\n        /* \"#utility.yul\":6894:6900   */\n      dup3\n        /* \"#utility.yul\":6883:6892   */\n      dup12\n        /* \"#utility.yul\":6879:6901   */\n      add\n        /* \"#utility.yul\":6848:6911   */\n      tag_107\n      jump\t// in\n    tag_207:\n        /* \"#utility.yul\":6838:6911   */\n      swap8\n      pop\n        /* \"#utility.yul\":6634:6921   */\n      pop\n        /* \"#utility.yul\":6988:6990   */\n      0x20\n        /* \"#utility.yul\":6977:6986   */\n      dup9\n        /* \"#utility.yul\":6973:6991   */\n      add\n        /* \"#utility.yul\":6960:6992   */\n      calldataload\n        /* \"#utility.yul\":7019:7037   */\n      0xffffffffffffffff\n        /* \"#utility.yul\":7011:7017   */\n      dup2\n        /* \"#utility.yul\":7008:7038   */\n      gt\n        /* \"#utility.yul\":7005:7122   */\n      iszero\n      tag_208\n      jumpi\n        /* \"#utility.yul\":7041:7120   */\n      tag_209\n      tag_98\n      jump\t// in\n    tag_209:\n        /* \"#utility.yul\":7005:7122   */\n    tag_208:\n        /* \"#utility.yul\":7146:7209   */\n      tag_210\n        /* \"#utility.yul\":7201:7208   */\n      dup11\n        /* \"#utility.yul\":7192:7198   */\n      dup3\n        /* \"#utility.yul\":7181:7190   */\n      dup12\n        /* \"#utility.yul\":7177:7199   */\n      add\n        /* \"#utility.yul\":7146:7209   */\n      tag_107\n      jump\t// in\n    tag_210:\n        /* \"#utility.yul\":7136:7209   */\n      swap7\n      pop\n        /* \"#utility.yul\":6931:7219   */\n      pop\n        /* \"#utility.yul\":7286:7288   */\n      0x40\n        /* \"#utility.yul\":7275:7284   */\n      dup9\n        /* \"#utility.yul\":7271:7289   */\n      add\n        /* \"#utility.yul\":7258:7290   */\n      calldataload\n        /* \"#utility.yul\":7317:7335   */\n      0xffffffffffffffff\n        /* \"#utility.yul\":7309:7315   */\n      dup2\n        /* \"#utility.yul\":7306:7336   */\n      gt\n        /* \"#utility.yul\":7303:7420   */\n      iszero\n      tag_211\n      jumpi\n        /* \"#utility.yul\":7339:7418   */\n      tag_212\n      tag_98\n      jump\t// in\n    tag_212:\n        /* \"#utility.yul\":7303:7420   */\n    tag_211:\n        /* \"#utility.yul\":7444:7507   */\n      tag_213\n        /* \"#utility.yul\":7499:7506   */\n      dup11\n        /* \"#utility.yul\":7490:7496   */\n      dup3\n        /* \"#utility.yul\":7479:7488   */\n      dup12\n        /* \"#utility.yul\":7475:7497   */\n      add\n        /* \"#utility.yul\":7444:7507   */\n      tag_107\n      jump\t// in\n    tag_213:\n        /* \"#utility.yul\":7434:7507   */\n      swap6\n      pop\n        /* \"#utility.yul\":7229:7517   */\n      pop\n        /* \"#utility.yul\":7584:7586   */\n      0x60\n        /* \"#utility.yul\":7573:7582   */\n      dup9\n        /* \"#utility.yul\":7569:7587   */\n      add\n        /* \"#utility.yul\":7556:7588   */\n      calldataload\n        /* \"#utility.yul\":7615:7633   */\n      0xffffffffffffffff\n        /* \"#utility.yul\":7607:7613   */\n      dup2\n        /* \"#utility.yul\":7604:7634   */\n      gt\n        /* \"#utility.yul\":7601:7718   */\n      iszero\n      tag_214\n      jumpi\n        /* \"#utility.yul\":7637:7716   */\n      tag_215\n      tag_98\n      jump\t// in\n    tag_215:\n        /* \"#utility.yul\":7601:7718   */\n    tag_214:\n        /* \"#utility.yul\":7742:7805   */\n      tag_216\n        /* \"#utility.yul\":7797:7804   */\n      dup11\n        /* \"#utility.yul\":7788:7794   */\n      dup3\n        /* \"#utility.yul\":7777:7786   */\n      dup12\n        /* \"#utility.yul\":7773:7795   */\n      add\n        /* \"#utility.yul\":7742:7805   */\n      tag_107\n      jump\t// in\n    tag_216:\n        /* \"#utility.yul\":7732:7805   */\n      swap5\n      pop\n        /* \"#utility.yul\":7527:7815   */\n      pop\n        /* \"#utility.yul\":7882:7885   */\n      0x80\n        /* \"#utility.yul\":7871:7880   */\n      dup9\n        /* \"#utility.yul\":7867:7886   */\n      add\n        /* \"#utility.yul\":7854:7887   */\n      calldataload\n        /* \"#utility.yul\":7914:7932   */\n      0xffffffffffffffff\n        /* \"#utility.yul\":7906:7912   */\n      dup2\n        /* \"#utility.yul\":7903:7933   */\n      gt\n        /* \"#utility.yul\":7900:8017   */\n      iszero\n      tag_217\n      jumpi\n        /* \"#utility.yul\":7936:8015   */\n      tag_218\n      tag_98\n      jump\t// in\n    tag_218:\n        /* \"#utility.yul\":7900:8017   */\n    tag_217:\n        /* \"#utility.yul\":8041:8104   */\n      tag_219\n        /* \"#utility.yul\":8096:8103   */\n      dup11\n        /* \"#utility.yul\":8087:8093   */\n      dup3\n        /* \"#utility.yul\":8076:8085   */\n      dup12\n        /* \"#utility.yul\":8072:8094   */\n      add\n        /* \"#utility.yul\":8041:8104   */\n      tag_107\n      jump\t// in\n    tag_219:\n        /* \"#utility.yul\":8031:8104   */\n      swap4\n      pop\n        /* \"#utility.yul\":7825:8114   */\n      pop\n        /* \"#utility.yul\":8181:8184   */\n      0xa0\n        /* \"#utility.yul\":8170:8179   */\n      dup9\n        /* \"#utility.yul\":8166:8185   */\n      add\n        /* \"#utility.yul\":8153:8186   */\n      calldataload\n        /* \"#utility.yul\":8213:8231   */\n      0xffffffffffffffff\n        /* \"#utility.yul\":8205:8211   */\n      dup2\n        /* \"#utility.yul\":8202:8232   */\n      gt\n        /* \"#utility.yul\":8199:8316   */\n      iszero\n      tag_220\n      jumpi\n        /* \"#utility.yul\":8235:8314   */\n      tag_221\n      tag_98\n      jump\t// in\n    tag_221:\n        /* \"#utility.yul\":8199:8316   */\n    tag_220:\n        /* \"#utility.yul\":8340:8403   */\n      tag_222\n        /* \"#utility.yul\":8395:8402   */\n      dup11\n        /* \"#utility.yul\":8386:8392   */\n      dup3\n        /* \"#utility.yul\":8375:8384   */\n      dup12\n        /* \"#utility.yul\":8371:8393   */\n      add\n        /* \"#utility.yul\":8340:8403   */\n      tag_107\n      jump\t// in\n    tag_222:\n        /* \"#utility.yul\":8330:8403   */\n      swap3\n      pop\n        /* \"#utility.yul\":8124:8413   */\n      pop\n        /* \"#utility.yul\":8452:8455   */\n      0xc0\n        /* \"#utility.yul\":8479:8529   */\n      tag_223\n        /* \"#utility.yul\":8521:8528   */\n      dup11\n        /* \"#utility.yul\":8512:8518   */\n      dup3\n        /* \"#utility.yul\":8501:8510   */\n      dup12\n        /* \"#utility.yul\":8497:8519   */\n      add\n        /* \"#utility.yul\":8479:8529   */\n      tag_109\n      jump\t// in\n    tag_223:\n        /* \"#utility.yul\":8469:8529   */\n      swap2\n      pop\n        /* \"#utility.yul\":8423:8539   */\n      pop\n        /* \"#utility.yul\":6269:8546   */\n      swap3\n      swap6\n      swap9\n      swap2\n      swap5\n      swap8\n      pop\n      swap3\n      swap6\n      pop\n      jump\t// out\n        /* \"#utility.yul\":8552:8656   */\n    tag_110:\n        /* \"#utility.yul\":8597:8604   */\n      0x00\n        /* \"#utility.yul\":8626:8650   */\n      tag_225\n        /* \"#utility.yul\":8644:8649   */\n      dup3\n        /* \"#utility.yul\":8626:8650   */\n      tag_93\n      jump\t// in\n    tag_225:\n        /* \"#utility.yul\":8615:8650   */\n      swap1\n      pop\n        /* \"#utility.yul\":8552:8656   */\n      swap2\n      swap1\n      pop\n      jump\t// out\n        /* \"#utility.yul\":8662:8804   */\n    tag_111:\n        /* \"#utility.yul\":8765:8797   */\n      tag_227\n        /* \"#utility.yul\":8791:8796   */\n      dup2\n        /* \"#utility.yul\":8765:8797   */\n      tag_110\n      jump\t// in\n    tag_227:\n        /* \"#utility.yul\":8760:8763   */\n      dup3\n        /* \"#utility.yul\":8753:8798   */\n      mstore\n        /* \"#utility.yul\":8662:8804   */\n      pop\n      pop\n      jump\t// out\n        /* \"#utility.yul\":8810:9064   */\n    tag_28:\n        /* \"#utility.yul\":8919:8923   */\n      0x00\n        /* \"#utility.yul\":8957:8959   */\n      0x20\n        /* \"#utility.yul\":8946:8955   */\n      dup3\n        /* \"#utility.yul\":8942:8960   */\n      add\n        /* \"#utility.yul\":8934:8960   */\n      swap1\n      pop\n        /* \"#utility.yul\":8970:9057   */\n      tag_229\n        /* \"#utility.yul\":9054:9055   */\n      0x00\n        /* \"#utility.yul\":9043:9052   */\n      dup4\n        /* \"#utility.yul\":9039:9056   */\n      add\n        /* \"#utility.yul\":9030:9036   */\n      dup5\n        /* \"#utility.yul\":8970:9057   */\n      tag_111\n      jump\t// in\n    tag_229:\n        /* \"#utility.yul\":8810:9064   */\n      swap3\n      swap2\n      pop\n      pop\n      jump\t// out\n        /* \"#utility.yul\":9070:9301   */\n    tag_112:\n        /* \"#utility.yul\":9210:9244   */\n      0x536f6c6f20656c2070726f706965746172696f20707565646520726574697261\n        /* \"#utility.yul\":9206:9207   */\n      0x00\n        /* \"#utility.yul\":9198:9204   */\n      dup3\n        /* \"#utility.yul\":9194:9208   */\n      add\n        /* \"#utility.yul\":9187:9245   */\n      mstore\n        /* \"#utility.yul\":9279:9293   */\n      0x72206c6f7320666f6e646f730000000000000000000000000000000000000000\n        /* \"#utility.yul\":9274:9276   */\n      0x20\n        /* \"#utility.yul\":9266:9272   */\n      dup3\n        /* \"#utility.yul\":9262:9277   */\n      add\n        /* \"#utility.yul\":9255:9294   */\n      mstore\n        /* \"#utility.yul\":9070:9301   */\n      pop\n      jump\t// out\n        /* \"#utility.yul\":9307:9673   */\n    tag_113:\n        /* \"#utility.yul\":9449:9452   */\n      0x00\n        /* \"#utility.yul\":9470:9537   */\n      tag_232\n        /* \"#utility.yul\":9534:9536   */\n      0x2c\n        /* \"#utility.yul\":9529:9532   */\n      dup4\n        /* \"#utility.yul\":9470:9537   */\n      tag_87\n      jump\t// in\n    tag_232:\n        /* \"#utility.yul\":9463:9537   */\n      swap2\n      pop\n        /* \"#utility.yul\":9546:9639   */\n      tag_233\n        /* \"#utility.yul\":9635:9638   */\n      dup3\n        /* \"#utility.yul\":9546:9639   */\n      tag_112\n      jump\t// in\n    tag_233:\n        /* \"#utility.yul\":9664:9666   */\n      0x40\n        /* \"#utility.yul\":9659:9662   */\n      dup3\n        /* \"#utility.yul\":9655:9667   */\n      add\n        /* \"#utility.yul\":9648:9667   */\n      swap1\n      pop\n        /* \"#utility.yul\":9307:9673   */\n      swap2\n      swap1\n      pop\n      jump\t// out\n        /* \"#utility.yul\":9679:10098   */\n    tag_33:\n        /* \"#utility.yul\":9845:9849   */\n      0x00\n        /* \"#utility.yul\":9883:9885   */\n      0x20\n        /* \"#utility.yul\":9872:9881   */\n      dup3\n        /* \"#utility.yul\":9868:9886   */\n      add\n        /* \"#utility.yul\":9860:9886   */\n      swap1\n      pop\n        /* \"#utility.yul\":9932:9941   */\n      dup2\n        /* \"#utility.yul\":9926:9930   */\n      dup2\n        /* \"#utility.yul\":9922:9942   */\n      sub\n        /* \"#utility.yul\":9918:9919   */\n      0x00\n        /* \"#utility.yul\":9907:9916   */\n      dup4\n        /* \"#utility.yul\":9903:9920   */\n      add\n        /* \"#utility.yul\":9896:9943   */\n      mstore\n        /* \"#utility.yul\":9960:10091   */\n      tag_235\n        /* \"#utility.yul\":10086:10090   */\n      dup2\n        /* \"#utility.yul\":9960:10091   */\n      tag_113\n      jump\t// in\n    tag_235:\n        /* \"#utility.yul\":9952:10091   */\n      swap1\n      pop\n        /* \"#utility.yul\":9679:10098   */\n      swap2\n      swap1\n      pop\n      jump\t// out\n        /* \"#utility.yul\":10104:10282   */\n    tag_114:\n        /* \"#utility.yul\":10244:10274   */\n      0x4e6f2068617920666f6e646f7320656e20656c20636f6e747261746f00000000\n        /* \"#utility.yul\":10240:10241   */\n      0x00\n        /* \"#utility.yul\":10232:10238   */\n      dup3\n        /* \"#utility.yul\":10228:10242   */\n      add\n        /* \"#utility.yul\":10221:10275   */\n      mstore\n        /* \"#utility.yul\":10104:10282   */\n      pop\n      jump\t// out\n        /* \"#utility.yul\":10288:10654   */\n    tag_115:\n        /* \"#utility.yul\":10430:10433   */\n      0x00\n        /* \"#utility.yul\":10451:10518   */\n      tag_238\n        /* \"#utility.yul\":10515:10517   */\n      0x1c\n        /* \"#utility.yul\":10510:10513   */\n      dup4\n        /* \"#utility.yul\":10451:10518   */\n      tag_87\n      jump\t// in\n    tag_238:\n        /* \"#utility.yul\":10444:10518   */\n      swap2\n      pop\n        /* \"#utility.yul\":10527:10620   */\n      tag_239\n        /* \"#utility.yul\":10616:10619   */\n      dup3\n        /* \"#utility.yul\":10527:10620   */\n      tag_114\n      jump\t// in\n    tag_239:\n        /* \"#utility.yul\":10645:10647   */\n      0x20\n        /* \"#utility.yul\":10640:10643   */\n      dup3\n        /* \"#utility.yul\":10636:10648   */\n      add\n        /* \"#utility.yul\":10629:10648   */\n      swap1\n      pop\n        /* \"#utility.yul\":10288:10654   */\n      swap2\n      swap1\n      pop\n      jump\t// out\n        /* \"#utility.yul\":10660:11079   */\n    tag_37:\n        /* \"#utility.yul\":10826:10830   */\n      0x00\n        /* \"#utility.yul\":10864:10866   */\n      0x20\n        /* \"#utility.yul\":10853:10862   */\n      dup3\n        /* \"#utility.yul\":10849:10867   */\n      add\n        /* \"#utility.yul\":10841:10867   */\n      swap1\n      pop\n        /* \"#utility.yul\":10913:10922   */\n      dup2\n        /* \"#utility.yul\":10907:10911   */\n      dup2\n        /* \"#utility.yul\":10903:10923   */\n      sub\n        /* \"#utility.yul\":10899:10900   */\n      0x00\n        /* \"#utility.yul\":10888:10897   */\n      dup4\n        /* \"#utility.yul\":10884:10901   */\n      add\n        /* \"#utility.yul\":10877:10924   */\n      mstore\n        /* \"#utility.yul\":10941:11072   */\n      tag_241\n        /* \"#utility.yul\":11067:11071   */\n      dup2\n        /* \"#utility.yul\":10941:11072   */\n      tag_115\n      jump\t// in\n    tag_241:\n        /* \"#utility.yul\":10933:11072   */\n      swap1\n      pop\n        /* \"#utility.yul\":10660:11079   */\n      swap2\n      swap1\n      pop\n      jump\t// out\n        /* \"#utility.yul\":11085:11265   */\n    tag_116:\n        /* \"#utility.yul\":11133:11210   */\n      0x4e487b7100000000000000000000000000000000000000000000000000000000\n        /* \"#utility.yul\":11130:11131   */\n      0x00\n        /* \"#utility.yul\":11123:11211   */\n      mstore\n        /* \"#utility.yul\":11230:11234   */\n      0x22\n        /* \"#utility.yul\":11227:11228   */\n      0x04\n        /* \"#utility.yul\":11220:11235   */\n      mstore\n        /* \"#utility.yul\":11254:11258   */\n      0x24\n        /* \"#utility.yul\":11251:11252   */\n      0x00\n        /* \"#utility.yul\":11244:11259   */\n      revert\n        /* \"#utility.yul\":11271:11591   */\n    tag_41:\n        /* \"#utility.yul\":11315:11321   */\n      0x00\n        /* \"#utility.yul\":11352:11353   */\n      0x02\n        /* \"#utility.yul\":11346:11350   */\n      dup3\n        /* \"#utility.yul\":11342:11354   */\n      div\n        /* \"#utility.yul\":11332:11354   */\n      swap1\n      pop\n        /* \"#utility.yul\":11399:11400   */\n      0x01\n        /* \"#utility.yul\":11393:11397   */\n      dup3\n        /* \"#utility.yul\":11389:11401   */\n      and\n        /* \"#utility.yul\":11420:11438   */\n      dup1\n        /* \"#utility.yul\":11410:11491   */\n      tag_244\n      jumpi\n        /* \"#utility.yul\":11476:11480   */\n      0x7f\n        /* \"#utility.yul\":11468:11474   */\n      dup3\n        /* \"#utility.yul\":11464:11481   */\n      and\n        /* \"#utility.yul\":11454:11481   */\n      swap2\n      pop\n        /* \"#utility.yul\":11410:11491   */\n    tag_244:\n        /* \"#utility.yul\":11538:11540   */\n      0x20\n        /* \"#utility.yul\":11530:11536   */\n      dup3\n        /* \"#utility.yul\":11527:11541   */\n      lt\n        /* \"#utility.yul\":11507:11525   */\n      dup2\n        /* \"#utility.yul\":11504:11542   */\n      sub\n        /* \"#utility.yul\":11501:11585   */\n      tag_245\n      jumpi\n        /* \"#utility.yul\":11557:11575   */\n      tag_246\n      tag_116\n      jump\t// in\n    tag_246:\n        /* \"#utility.yul\":11501:11585   */\n    tag_245:\n        /* \"#utility.yul\":11322:11591   */\n      pop\n        /* \"#utility.yul\":11271:11591   */\n      swap2\n      swap1\n      pop\n      jump\t// out\n        /* \"#utility.yul\":11597:11774   */\n    tag_117:\n        /* \"#utility.yul\":11737:11766   */\n      0x4e6f207469656e652073616c646f207061726120656a63757461720000000000\n        /* \"#utility.yul\":11733:11734   */\n      0x00\n        /* \"#utility.yul\":11725:11731   */\n      dup3\n        /* \"#utility.yul\":11721:11735   */\n      add\n        /* \"#utility.yul\":11714:11767   */\n      mstore\n        /* \"#utility.yul\":11597:11774   */\n      pop\n      jump\t// out\n        /* \"#utility.yul\":11780:12146   */\n    tag_118:\n        /* \"#utility.yul\":11922:11925   */\n      0x00\n        /* \"#utility.yul\":11943:12010   */\n      tag_249\n        /* \"#utility.yul\":12007:12009   */\n      0x1b\n        /* \"#utility.yul\":12002:12005   */\n      dup4\n        /* \"#utility.yul\":11943:12010   */\n      tag_87\n      jump\t// in\n    tag_249:\n        /* \"#utility.yul\":11936:12010   */\n      swap2\n      pop\n        /* \"#utility.yul\":12019:12112   */\n      tag_250\n        /* \"#utility.yul\":12108:12111   */\n      dup3\n        /* \"#utility.yul\":12019:12112   */\n      tag_117\n      jump\t// in\n    tag_250:\n        /* \"#utility.yul\":12137:12139   */\n      0x20\n        /* \"#utility.yul\":12132:12135   */\n      dup3\n        /* \"#utility.yul\":12128:12140   */\n      add\n        /* \"#utility.yul\":12121:12140   */\n      swap1\n      pop\n        /* \"#utility.yul\":11780:12146   */\n      swap2\n      swap1\n      pop\n      jump\t// out\n        /* \"#utility.yul\":12152:12571   */\n    tag_74:\n        /* \"#utility.yul\":12318:12322   */\n      0x00\n        /* \"#utility.yul\":12356:12358   */\n      0x20\n        /* \"#utility.yul\":12345:12354   */\n      dup3\n        /* \"#utility.yul\":12341:12359   */\n      add\n        /* \"#utility.yul\":12333:12359   */\n      swap1\n      pop\n        /* \"#utility.yul\":12405:12414   */\n      dup2\n        /* \"#utility.yul\":12399:12403   */\n      dup2\n        /* \"#utility.yul\":12395:12415   */\n      sub\n        /* \"#utility.yul\":12391:12392   */\n      0x00\n        /* \"#utility.yul\":12380:12389   */\n      dup4\n        /* \"#utility.yul\":12376:12393   */\n      add\n        /* \"#utility.yul\":12369:12416   */\n      mstore\n        /* \"#utility.yul\":12433:12564   */\n      tag_252\n        /* \"#utility.yul\":12559:12563   */\n      dup2\n        /* \"#utility.yul\":12433:12564   */\n      tag_118\n      jump\t// in\n    tag_252:\n        /* \"#utility.yul\":12425:12564   */\n      swap1\n      pop\n        /* \"#utility.yul\":12152:12571   */\n      swap2\n      swap1\n      pop\n      jump\t// out\n        /* \"#utility.yul\":12577:12718   */\n    tag_119:\n        /* \"#utility.yul\":12626:12630   */\n      0x00\n        /* \"#utility.yul\":12649:12652   */\n      dup2\n        /* \"#utility.yul\":12641:12652   */\n      swap1\n      pop\n        /* \"#utility.yul\":12672:12675   */\n      dup2\n        /* \"#utility.yul\":12669:12670   */\n      0x00\n        /* \"#utility.yul\":12662:12676   */\n      mstore\n        /* \"#utility.yul\":12706:12710   */\n      0x20\n        /* \"#utility.yul\":12703:12704   */\n      0x00\n        /* \"#utility.yul\":12693:12711   */\n      keccak256\n        /* \"#utility.yul\":12685:12711   */\n      swap1\n      pop\n        /* \"#utility.yul\":12577:12718   */\n      swap2\n      swap1\n      pop\n      jump\t// out\n        /* \"#utility.yul\":12724:12817   */\n    tag_120:\n        /* \"#utility.yul\":12761:12767   */\n      0x00\n        /* \"#utility.yul\":12808:12810   */\n      0x20\n        /* \"#utility.yul\":12803:12805   */\n      0x1f\n        /* \"#utility.yul\":12796:12801   */\n      dup4\n        /* \"#utility.yul\":12792:12806   */\n      add\n        /* \"#utility.yul\":12788:12811   */\n      div\n        /* \"#utility.yul\":12778:12811   */\n      swap1\n      pop\n        /* \"#utility.yul\":12724:12817   */\n      swap2\n      swap1\n      pop\n      jump\t// out\n        /* \"#utility.yul\":12823:12930   */\n    tag_121:\n        /* \"#utility.yul\":12867:12875   */\n      0x00\n        /* \"#utility.yul\":12917:12922   */\n      dup3\n        /* \"#utility.yul\":12911:12915   */\n      dup3\n        /* \"#utility.yul\":12907:12923   */\n      shl\n        /* \"#utility.yul\":12886:12923   */\n      swap1\n      pop\n        /* \"#utility.yul\":12823:12930   */\n      swap3\n      swap2\n      pop\n      pop\n      jump\t// out\n        /* \"#utility.yul\":12936:13329   */\n    tag_122:\n        /* \"#utility.yul\":13005:13011   */\n      0x00\n        /* \"#utility.yul\":13055:13056   */\n      0x08\n        /* \"#utility.yul\":13043:13053   */\n      dup4\n        /* \"#utility.yul\":13039:13057   */\n      mul\n        /* \"#utility.yul\":13078:13175   */\n      tag_257\n        /* \"#utility.yul\":13108:13174   */\n      0xffffffffffffffffffffffffffffffffffffffffffffffffffffffffffffffff\n        /* \"#utility.yul\":13097:13106   */\n      dup3\n        /* \"#utility.yul\":13078:13175   */\n      tag_121\n      jump\t// in\n    tag_257:\n        /* \"#utility.yul\":13196:13235   */\n      tag_258\n        /* \"#utility.yul\":13226:13234   */\n      dup7\n        /* \"#utility.yul\":13215:13224   */\n      dup4\n        /* \"#utility.yul\":13196:13235   */\n      tag_121\n      jump\t// in\n    tag_258:\n        /* \"#utility.yul\":13184:13235   */\n      swap6\n      pop\n        /* \"#utility.yul\":13268:13272   */\n      dup1\n        /* \"#utility.yul\":13264:13273   */\n      not\n        /* \"#utility.yul\":13257:13262   */\n      dup5\n        /* \"#utility.yul\":13253:13274   */\n      and\n        /* \"#utility.yul\":13244:13274   */\n      swap4\n      pop\n        /* \"#utility.yul\":13317:13321   */\n      dup1\n        /* \"#utility.yul\":13307:13315   */\n      dup7\n        /* \"#utility.yul\":13303:13322   */\n      and\n        /* \"#utility.yul\":13296:13301   */\n      dup5\n        /* \"#utility.yul\":13293:13323   */\n      or\n        /* \"#utility.yul\":13283:13323   */\n      swap3\n      pop\n        /* \"#utility.yul\":13012:13329   */\n      pop\n      pop\n        /* \"#utility.yul\":12936:13329   */\n      swap4\n      swap3\n      pop\n      pop\n      pop\n      jump\t// out\n        /* \"#utility.yul\":13335:13395   */\n    tag_123:\n        /* \"#utility.yul\":13363:13366   */\n      0x00\n        /* \"#utility.yul\":13384:13389   */\n      dup2\n        /* \"#utility.yul\":13377:13389   */\n      swap1\n      pop\n        /* \"#utility.yul\":13335:13395   */\n      swap2\n      swap1\n      pop\n      jump\t// out\n        /* \"#utility.yul\":13401:13543   */\n    tag_124:\n        /* \"#utility.yul\":13451:13460   */\n      0x00\n        /* \"#utility.yul\":13484:13537   */\n      tag_261\n        /* \"#utility.yul\":13502:13536   */\n      tag_262\n        /* \"#utility.yul\":13511:13535   */\n      tag_263\n        /* \"#utility.yul\":13529:13534   */\n      dup5\n        /* \"#utility.yul\":13511:13535   */\n      tag_84\n      jump\t// in\n    tag_263:\n        /* \"#utility.yul\":13502:13536   */\n      tag_123\n      jump\t// in\n    tag_262:\n        /* \"#utility.yul\":13484:13537   */\n      tag_84\n      jump\t// in\n    tag_261:\n        /* \"#utility.yul\":13471:13537   */\n      swap1\n      pop\n        /* \"#utility.yul\":13401:13543   */\n      swap2\n      swap1\n      pop\n      jump\t// out\n        /* \"#utility.yul\":13549:13624   */\n    tag_125:\n        /* \"#utility.yul\":13592:13595   */\n      0x00\n        /* \"#utility.yul\":13613:13618   */\n      dup2\n        /* \"#utility.yul\":13606:13618   */\n      swap1\n      pop\n        /* \"#utility.yul\":13549:13624   */\n      swap2\n      swap1\n      pop\n      jump\t// out\n        /* \"#utility.yul\":13630:13899   */\n    tag_126:\n        /* \"#utility.yul\":13740:13779   */\n      tag_266\n        /* \"#utility.yul\":13771:13778   */\n      dup4\n        /* \"#utility.yul\":13740:13779   */\n      tag_124\n      jump\t// in\n    tag_266:\n        /* \"#utility.yul\":13801:13892   */\n      tag_267\n        /* \"#utility.yul\":13850:13891   */\n      tag_268\n        /* \"#utility.yul\":13874:13890   */\n      dup3\n        /* \"#utility.yul\":13850:13891   */\n      tag_125\n      jump\t// in\n    tag_268:\n        /* \"#utility.yul\":13842:13848   */\n      dup5\n        /* \"#utility.yul\":13835:13839   */\n      dup5\n        /* \"#utility.yul\":13829:13840   */\n      sload\n        /* \"#utility.yul\":13801:13892   */\n      tag_122\n      jump\t// in\n    tag_267:\n        /* \"#utility.yul\":13795:13799   */\n      dup3\n        /* \"#utility.yul\":13788:13893   */\n      sstore\n        /* \"#utility.yul\":13706:13899   */\n      pop\n        /* \"#utility.yul\":13630:13899   */\n      pop\n      pop\n      pop\n      jump\t// out\n        /* \"#utility.yul\":13905:13978   */\n    tag_127:\n        /* \"#utility.yul\":13950:13953   */\n      0x00\n        /* \"#utility.yul\":13905:13978   */\n      swap1\n      jump\t// out\n        /* \"#utility.yul\":13984:14173   */\n    tag_128:\n        /* \"#utility.yul\":14061:14093   */\n      tag_271\n      tag_127\n      jump\t// in\n    tag_271:\n        /* \"#utility.yul\":14102:14167   */\n      tag_272\n        /* \"#utility.yul\":14160:14166   */\n      dup2\n        /* \"#utility.yul\":14152:14158   */\n      dup5\n        /* \"#utility.yul\":14146:14150   */\n      dup5\n        /* \"#utility.yul\":14102:14167   */\n      tag_126\n      jump\t// in\n    tag_272:\n        /* \"#utility.yul\":14037:14173   */\n      pop\n        /* \"#utility.yul\":13984:14173   */\n      pop\n      pop\n      jump\t// out\n        /* \"#utility.yul\":14179:14365   */\n    tag_129:\n        /* \"#utility.yul\":14239:14359   */\n    tag_274:\n        /* \"#utility.yul\":14256:14259   */\n      dup2\n        /* \"#utility.yul\":14249:14254   */\n      dup2\n        /* \"#utility.yul\":14246:14260   */\n      lt\n        /* \"#utility.yul\":14239:14359   */\n      iszero\n      tag_276\n      jumpi\n        /* \"#utility.yul\":14310:14349   */\n      tag_277\n        /* \"#utility.yul\":14347:14348   */\n      0x00\n        /* \"#utility.yul\":14340:14345   */\n      dup3\n        /* \"#utility.yul\":14310:14349   */\n      tag_128\n      jump\t// in\n    tag_277:\n        /* \"#utility.yul\":14283:14284   */\n      0x01\n        /* \"#utility.yul\":14276:14281   */\n      dup2\n        /* \"#utility.yul\":14272:14285   */\n      add\n        /* \"#utility.yul\":14263:14285   */\n      swap1\n      pop\n        /* \"#utility.yul\":14239:14359   */\n      jump(tag_274)\n    tag_276:\n        /* \"#utility.yul\":14179:14365   */\n      pop\n      pop\n      jump\t// out\n        /* \"#utility.yul\":14371:14914   */\n    tag_130:\n        /* \"#utility.yul\":14472:14474   */\n      0x1f\n        /* \"#utility.yul\":14467:14470   */\n      dup3\n        /* \"#utility.yul\":14464:14475   */\n      gt\n        /* \"#utility.yul\":14461:14907   */\n      iszero\n      tag_279\n      jumpi\n        /* \"#utility.yul\":14506:14544   */\n      tag_280\n        /* \"#utility.yul\":14538:14543   */\n      dup2\n        /* \"#utility.yul\":14506:14544   */\n      tag_119\n      jump\t// in\n    tag_280:\n        /* \"#utility.yul\":14590:14619   */\n      tag_281\n        /* \"#utility.yul\":14608:14618   */\n      dup5\n        /* \"#utility.yul\":14590:14619   */\n      tag_120\n      jump\t// in\n    tag_281:\n        /* \"#utility.yul\":14580:14588   */\n      dup2\n        /* \"#utility.yul\":14576:14620   */\n      add\n        /* \"#utility.yul\":14773:14775   */\n      0x20\n        /* \"#utility.yul\":14761:14771   */\n      dup6\n        /* \"#utility.yul\":14758:14776   */\n      lt\n        /* \"#utility.yul\":14755:14804   */\n      iszero\n      tag_282\n      jumpi\n        /* \"#utility.yul\":14794:14802   */\n      dup2\n        /* \"#utility.yul\":14779:14802   */\n      swap1\n      pop\n        /* \"#utility.yul\":14755:14804   */\n    tag_282:\n        /* \"#utility.yul\":14817:14897   */\n      tag_283\n        /* \"#utility.yul\":14873:14895   */\n      tag_284\n        /* \"#utility.yul\":14891:14894   */\n      dup6\n        /* \"#utility.yul\":14873:14895   */\n      tag_120\n      jump\t// in\n    tag_284:\n        /* \"#utility.yul\":14863:14871   */\n      dup4\n        /* \"#utility.yul\":14859:14896   */\n      add\n        /* \"#utility.yul\":14846:14857   */\n      dup3\n        /* \"#utility.yul\":14817:14897   */\n      tag_129\n      jump\t// in\n    tag_283:\n        /* \"#utility.yul\":14476:14907   */\n      pop\n      pop\n        /* \"#utility.yul\":14461:14907   */\n    tag_279:\n        /* \"#utility.yul\":14371:14914   */\n      pop\n      pop\n      pop\n      jump\t// out\n        /* \"#utility.yul\":14920:15037   */\n    tag_131:\n        /* \"#utility.yul\":14974:14982   */\n      0x00\n        /* \"#utility.yul\":15024:15029   */\n      dup3\n        /* \"#utility.yul\":15018:15022   */\n      dup3\n        /* \"#utility.yul\":15014:15030   */\n      shr\n        /* \"#utility.yul\":14993:15030   */\n      swap1\n      pop\n        /* \"#utility.yul\":14920:15037   */\n      swap3\n      swap2\n      pop\n      pop\n      jump\t// out\n        /* \"#utility.yul\":15043:15212   */\n    tag_132:\n        /* \"#utility.yul\":15087:15093   */\n      0x00\n        /* \"#utility.yul\":15120:15171   */\n      tag_287\n        /* \"#utility.yul\":15168:15169   */\n      0x00\n        /* \"#utility.yul\":15164:15170   */\n      not\n        /* \"#utility.yul\":15156:15161   */\n      dup5\n        /* \"#utility.yul\":15153:15154   */\n      0x08\n        /* \"#utility.yul\":15149:15162   */\n      mul\n        /* \"#utility.yul\":15120:15171   */\n      tag_131\n      jump\t// in\n    tag_287:\n        /* \"#utility.yul\":15116:15172   */\n      not\n        /* \"#utility.yul\":15201:15205   */\n      dup1\n        /* \"#utility.yul\":15195:15199   */\n      dup4\n        /* \"#utility.yul\":15191:15206   */\n      and\n        /* \"#utility.yul\":15181:15206   */\n      swap2\n      pop\n        /* \"#utility.yul\":15094:15212   */\n      pop\n        /* \"#utility.yul\":15043:15212   */\n      swap3\n      swap2\n      pop\n      pop\n      jump\t// out\n        /* \"#utility.yul\":15217:15512   */\n    tag_133:\n        /* \"#utility.yul\":15293:15297   */\n      0x00\n        /* \"#utility.yul\":15439:15468   */\n      tag_289\n        /* \"#utility.yul\":15464:15467   */\n      dup4\n        /* \"#utility.yul\":15458:15462   */\n      dup4\n        /* \"#utility.yul\":15439:15468   */\n      tag_132\n      jump\t// in\n    tag_289:\n        /* \"#utility.yul\":15431:15468   */\n      swap2\n      pop\n        /* \"#utility.yul\":15501:15504   */\n      dup3\n        /* \"#utility.yul\":15498:15499   */\n      0x02\n        /* \"#utility.yul\":15494:15505   */\n      mul\n        /* \"#utility.yul\":15488:15492   */\n      dup3\n        /* \"#utility.yul\":15485:15506   */\n      or\n        /* \"#utility.yul\":15477:15506   */\n      swap1\n      pop\n        /* \"#utility.yul\":15217:15512   */\n      swap3\n      swap2\n      pop\n      pop\n      jump\t// out\n        /* \"#utility.yul\":15517:16912   */\n    tag_77:\n        /* \"#utility.yul\":15634:15671   */\n      tag_291\n        /* \"#utility.yul\":15667:15670   */\n      dup3\n        /* \"#utility.yul\":15634:15671   */\n      tag_86\n      jump\t// in\n    tag_291:\n        /* \"#utility.yul\":15736:15754   */\n      0xffffffffffffffff\n        /* \"#utility.yul\":15728:15734   */\n      dup2\n        /* \"#utility.yul\":15725:15755   */\n      gt\n        /* \"#utility.yul\":15722:15778   */\n      iszero\n      tag_292\n      jumpi\n        /* \"#utility.yul\":15758:15776   */\n      tag_293\n      tag_101\n      jump\t// in\n    tag_293:\n        /* \"#utility.yul\":15722:15778   */\n    tag_292:\n        /* \"#utility.yul\":15802:15840   */\n      tag_294\n        /* \"#utility.yul\":15834:15838   */\n      dup3\n        /* \"#utility.yul\":15828:15839   */\n      sload\n        /* \"#utility.yul\":15802:15840   */\n      tag_41\n      jump\t// in\n    tag_294:\n        /* \"#utility.yul\":15887:15954   */\n      tag_295\n        /* \"#utility.yul\":15947:15953   */\n      dup3\n        /* \"#utility.yul\":15939:15945   */\n      dup3\n        /* \"#utility.yul\":15933:15937   */\n      dup6\n        /* \"#utility.yul\":15887:15954   */\n      tag_130\n      jump\t// in\n    tag_295:\n        /* \"#utility.yul\":15981:15982   */\n      0x00\n        /* \"#utility.yul\":16005:16009   */\n      0x20\n        /* \"#utility.yul\":15992:16009   */\n      swap1\n      pop\n        /* \"#utility.yul\":16037:16039   */\n      0x1f\n        /* \"#utility.yul\":16029:16035   */\n      dup4\n        /* \"#utility.yul\":16026:16040   */\n      gt\n        /* \"#utility.yul\":16054:16055   */\n      0x01\n        /* \"#utility.yul\":16049:16667   */\n      dup2\n      eq\n      tag_297\n      jumpi\n        /* \"#utility.yul\":16711:16712   */\n      0x00\n        /* \"#utility.yul\":16728:16734   */\n      dup5\n        /* \"#utility.yul\":16725:16802   */\n      iszero\n      tag_298\n      jumpi\n        /* \"#utility.yul\":16777:16786   */\n      dup3\n        /* \"#utility.yul\":16772:16775   */\n      dup8\n        /* \"#utility.yul\":16768:16787   */\n      add\n        /* \"#utility.yul\":16762:16788   */\n      mload\n        /* \"#utility.yul\":16753:16788   */\n      swap1\n      pop\n        /* \"#utility.yul\":16725:16802   */\n    tag_298:\n        /* \"#utility.yul\":16828:16895   */\n      tag_299\n        /* \"#utility.yul\":16888:16894   */\n      dup6\n        /* \"#utility.yul\":16881:16886   */\n      dup3\n        /* \"#utility.yul\":16828:16895   */\n      tag_133\n      jump\t// in\n    tag_299:\n        /* \"#utility.yul\":16822:16826   */\n      dup7\n        /* \"#utility.yul\":16815:16896   */\n      sstore\n        /* \"#utility.yul\":16684:16906   */\n      pop\n        /* \"#utility.yul\":16019:16906   */\n      jump(tag_296)\n        /* \"#utility.yul\":16049:16667   */\n    tag_297:\n        /* \"#utility.yul\":16101:16105   */\n      0x1f\n        /* \"#utility.yul\":16097:16106   */\n      not\n        /* \"#utility.yul\":16089:16095   */\n      dup5\n        /* \"#utility.yul\":16085:16107   */\n      and\n        /* \"#utility.yul\":16135:16172   */\n      tag_300\n        /* \"#utility.yul\":16167:16171   */\n      dup7\n        /* \"#utility.yul\":16135:16172   */\n      tag_119\n      jump\t// in\n    tag_300:\n        /* \"#utility.yul\":16194:16195   */\n      0x00\n        /* \"#utility.yul\":16208:16416   */\n    tag_301:\n        /* \"#utility.yul\":16222:16229   */\n      dup3\n        /* \"#utility.yul\":16219:16220   */\n      dup2\n        /* \"#utility.yul\":16216:16230   */\n      lt\n        /* \"#utility.yul\":16208:16416   */\n      iszero\n      tag_303\n      jumpi\n        /* \"#utility.yul\":16301:16310   */\n      dup5\n        /* \"#utility.yul\":16296:16299   */\n      dup10\n        /* \"#utility.yul\":16292:16311   */\n      add\n        /* \"#utility.yul\":16286:16312   */\n      mload\n        /* \"#utility.yul\":16278:16284   */\n      dup3\n        /* \"#utility.yul\":16271:16313   */\n      sstore\n        /* \"#utility.yul\":16352:16353   */\n      0x01\n        /* \"#utility.yul\":16344:16350   */\n      dup3\n        /* \"#utility.yul\":16340:16354   */\n      add\n        /* \"#utility.yul\":16330:16354   */\n      swap2\n      pop\n        /* \"#utility.yul\":16399:16401   */\n      0x20\n        /* \"#utility.yul\":16388:16397   */\n      dup6\n        /* \"#utility.yul\":16384:16402   */\n      add\n        /* \"#utility.yul\":16371:16402   */\n      swap5\n      pop\n        /* \"#utility.yul\":16245:16249   */\n      0x20\n        /* \"#utility.yul\":16242:16243   */\n      dup2\n        /* \"#utility.yul\":16238:16250   */\n      add\n        /* \"#utility.yul\":16233:16250   */\n      swap1\n      pop\n        /* \"#utility.yul\":16208:16416   */\n      jump(tag_301)\n    tag_303:\n        /* \"#utility.yul\":16444:16450   */\n      dup7\n        /* \"#utility.yul\":16435:16442   */\n      dup4\n        /* \"#utility.yul\":16432:16451   */\n      lt\n        /* \"#utility.yul\":16429:16608   */\n      iszero\n      tag_304\n      jumpi\n        /* \"#utility.yul\":16502:16511   */\n      dup5\n        /* \"#utility.yul\":16497:16500   */\n      dup10\n        /* \"#utility.yul\":16493:16512   */\n      add\n        /* \"#utility.yul\":16487:16513   */\n      mload\n        /* \"#utility.yul\":16545:16593   */\n      tag_305\n        /* \"#utility.yul\":16587:16591   */\n      0x1f\n        /* \"#utility.yul\":16579:16585   */\n      dup10\n        /* \"#utility.yul\":16575:16592   */\n      and\n        /* \"#utility.yul\":16564:16573   */\n      dup3\n        /* \"#utility.yul\":16545:16593   */\n      tag_132\n      jump\t// in\n    tag_305:\n        /* \"#utility.yul\":16537:16543   */\n      dup4\n        /* \"#utility.yul\":16530:16594   */\n      sstore\n        /* \"#utility.yul\":16452:16608   */\n      pop\n        /* \"#utility.yul\":16429:16608   */\n    tag_304:\n        /* \"#utility.yul\":16654:16655   */\n      0x01\n        /* \"#utility.yul\":16650:16651   */\n      0x02\n        /* \"#utility.yul\":16642:16648   */\n      dup9\n        /* \"#utility.yul\":16638:16652   */\n      mul\n        /* \"#utility.yul\":16634:16656   */\n      add\n        /* \"#utility.yul\":16628:16632   */\n      dup9\n        /* \"#utility.yul\":16621:16657   */\n      sstore\n        /* \"#utility.yul\":16056:16667   */\n      pop\n      pop\n      pop\n        /* \"#utility.yul\":16019:16906   */\n    tag_296:\n      pop\n        /* \"#utility.yul\":15609:16912   */\n      pop\n      pop\n      pop\n        /* \"#utility.yul\":15517:16912   */\n      pop\n      pop\n      jump\t// out\n\n    auxdata: 0xa26469706673582212205d2feb14546334740e9052ef8104f7add70c3b275f2df8776b8c653c094689dd64736f6c63430008180033\n}\n",
				"bytecode": {
					"linkReferences": {},
					"object": "608060405234801561000f575f80fd5b50335f806101000a81548173ffffffffffffffffffffffffffffffffffffffff021916908373ffffffffffffffffffffffffffffffffffffffff1602179055506110c38061005c5f395ff3fe608060405260043610610049575f3560e01c806312065fe01461004d5780633ccfd60b1461007757806373d4a13a1461008d578063782154df146100be5780638da5cb5b146100da575b5f80fd5b348015610058575f80fd5b50610061610104565b60405161006e91906107df565b60405180910390f35b348015610082575f80fd5b5061008b61010b565b005b348015610098575f80fd5b506100a1610244565b6040516100b59897969594939291906108db565b60405180910390f35b6100d860048036038101906100d39190610ae8565b6105c8565b005b3480156100e5575f80fd5b506100ee6107a4565b6040516100fb9190610c4d565b60405180910390f35b5f47905090565b5f8054906101000a900473ffffffffffffffffffffffffffffffffffffffff1673ffffffffffffffffffffffffffffffffffffffff163373ffffffffffffffffffffffffffffffffffffffff1614610198576040517f08c379a000000000000000000000000000000000000000000000000000000000815260040161018f90610cd6565b60405180910390fd5b5f4790505f81116101de576040517f08c379a00000000000000000000000000000000000000000000000000000000081526004016101d590610d3e565b60405180910390fd5b5f8054906101000a900473ffffffffffffffffffffffffffffffffffffffff1673ffffffffffffffffffffffffffffffffffffffff166108fc8290811502906040515f60405180830381858888f19350505050158015610240573d5f803e3d5ffd5b5050565b6001805f01805461025490610d89565b80601f016020809104026020016040519081016040528092919081815260200182805461028090610d89565b80156102cb5780601f106102a2576101008083540402835291602001916102cb565b820191905f5260205f20905b8154815290600101906020018083116102ae57829003601f168201915b5050505050908060010180546102e090610d89565b80601f016020809104026020016040519081016040528092919081815260200182805461030c90610d89565b80156103575780601f1061032e57610100808354040283529160200191610357565b820191905f5260205f20905b81548152906001019060200180831161033a57829003601f168201915b50505050509080600201805461036c90610d89565b80601f016020809104026020016040519081016040528092919081815260200182805461039890610d89565b80156103e35780601f106103ba576101008083540402835291602001916103e3565b820191905f5260205f20905b8154815290600101906020018083116103c657829003601f168201915b5050505050908060030180546103f890610d89565b80601f016020809104026020016040519081016040528092919081815260200182805461042490610d89565b801561046f5780601f106104465761010080835404028352916020019161046f565b820191905f5260205f20905b81548152906001019060200180831161045257829003601f168201915b50505050509080600401805461048490610d89565b80601f01602080910402602001604051908101604052809291908181526020018280546104b090610d89565b80156104fb5780601f106104d2576101008083540402835291602001916104fb565b820191905f5260205f20905b8154815290600101906020018083116104de57829003601f168201915b50505050509080600501805461051090610d89565b80601f016020809104026020016040519081016040528092919081815260200182805461053c90610d89565b80156105875780601f1061055e57610100808354040283529160200191610587565b820191905f5260205f20905b81548152906001019060200180831161056a57829003601f168201915b505050505090806006015f9054906101000a90045f0b908060060160019054906101000a900473ffffffffffffffffffffffffffffffffffffffff16905088565b66038d7ea4c6800080341015610613576040517f08c379a000000000000000000000000000000000000000000000000000000000815260040161060a90610e03565b60405180910390fd5b604051806101000160405280898152602001888152602001878152602001868152602001858152602001848152602001835f0b81526020013373ffffffffffffffffffffffffffffffffffffffff1681525060015f820151815f01908161067a9190610fbe565b5060208201518160010190816106909190610fbe565b5060408201518160020190816106a69190610fbe565b5060608201518160030190816106bc9190610fbe565b5060808201518160040190816106d29190610fbe565b5060a08201518160050190816106e89190610fbe565b5060c0820151816006015f6101000a81548160ff02191690835f0b60ff16021790555060e08201518160060160016101000a81548173ffffffffffffffffffffffffffffffffffffffff021916908373ffffffffffffffffffffffffffffffffffffffff1602179055509050507f870247eb151fd35c4907322d059c22cbe7eb7930b7b7116d4a107cbbb5378d1288888888888888336040516107929897969594939291906108db565b60405180910390a15050505050505050565b5f8054906101000a900473ffffffffffffffffffffffffffffffffffffffff1681565b5f819050919050565b6107d9816107c7565b82525050565b5f6020820190506107f25f8301846107d0565b92915050565b5f81519050919050565b5f82825260208201905092915050565b5f5b8381101561082f578082015181840152602081019050610814565b5f8484015250505050565b5f601f19601f8301169050919050565b5f610854826107f8565b61085e8185610802565b935061086e818560208601610812565b6108778161083a565b840191505092915050565b5f815f0b9050919050565b61089681610882565b82525050565b5f73ffffffffffffffffffffffffffffffffffffffff82169050919050565b5f6108c58261089c565b9050919050565b6108d5816108bb565b82525050565b5f610100820190508181035f8301526108f4818b61084a565b90508181036020830152610908818a61084a565b9050818103604083015261091c818961084a565b90508181036060830152610930818861084a565b90508181036080830152610944818761084a565b905081810360a0830152610958818661084a565b905061096760c083018561088d565b61097460e08301846108cc565b9998505050505050505050565b5f604051905090565b5f80fd5b5f80fd5b5f80fd5b5f80fd5b7f4e487b71000000000000000000000000000000000000000000000000000000005f52604160045260245ffd5b6109d08261083a565b810181811067ffffffffffffffff821117156109ef576109ee61099a565b5b80604052505050565b5f610a01610981565b9050610a0d82826109c7565b919050565b5f67ffffffffffffffff821115610a2c57610a2b61099a565b5b610a358261083a565b9050602081019050919050565b828183375f83830152505050565b5f610a62610a5d84610a12565b6109f8565b905082815260208101848484011115610a7e57610a7d610996565b5b610a89848285610a42565b509392505050565b5f82601f830112610aa557610aa4610992565b5b8135610ab5848260208601610a50565b91505092915050565b610ac781610882565b8114610ad1575f80fd5b50565b5f81359050610ae281610abe565b92915050565b5f805f805f805f60e0888a031215610b0357610b0261098a565b5b5f88013567ffffffffffffffff811115610b2057610b1f61098e565b5b610b2c8a828b01610a91565b975050602088013567ffffffffffffffff811115610b4d57610b4c61098e565b5b610b598a828b01610a91565b965050604088013567ffffffffffffffff811115610b7a57610b7961098e565b5b610b868a828b01610a91565b955050606088013567ffffffffffffffff811115610ba757610ba661098e565b5b610bb38a828b01610a91565b945050608088013567ffffffffffffffff811115610bd457610bd361098e565b5b610be08a828b01610a91565b93505060a088013567ffffffffffffffff811115610c0157610c0061098e565b5b610c0d8a828b01610a91565b92505060c0610c1e8a828b01610ad4565b91505092959891949750929550565b5f610c378261089c565b9050919050565b610c4781610c2d565b82525050565b5f602082019050610c605f830184610c3e565b92915050565b7f536f6c6f20656c2070726f706965746172696f207075656465207265746972615f8201527f72206c6f7320666f6e646f730000000000000000000000000000000000000000602082015250565b5f610cc0602c83610802565b9150610ccb82610c66565b604082019050919050565b5f6020820190508181035f830152610ced81610cb4565b9050919050565b7f4e6f2068617920666f6e646f7320656e20656c20636f6e747261746f000000005f82015250565b5f610d28601c83610802565b9150610d3382610cf4565b602082019050919050565b5f6020820190508181035f830152610d5581610d1c565b9050919050565b7f4e487b71000000000000000000000000000000000000000000000000000000005f52602260045260245ffd5b5f6002820490506001821680610da057607f821691505b602082108103610db357610db2610d5c565b5b50919050565b7f4e6f207469656e652073616c646f207061726120656a637574617200000000005f82015250565b5f610ded601b83610802565b9150610df882610db9565b602082019050919050565b5f6020820190508181035f830152610e1a81610de1565b9050919050565b5f819050815f5260205f209050919050565b5f6020601f8301049050919050565b5f82821b905092915050565b5f60088302610e7d7fffffffffffffffffffffffffffffffffffffffffffffffffffffffffffffffff82610e42565b610e878683610e42565b95508019841693508086168417925050509392505050565b5f819050919050565b5f610ec2610ebd610eb8846107c7565b610e9f565b6107c7565b9050919050565b5f819050919050565b610edb83610ea8565b610eef610ee782610ec9565b848454610e4e565b825550505050565b5f90565b610f03610ef7565b610f0e818484610ed2565b505050565b5b81811015610f3157610f265f82610efb565b600181019050610f14565b5050565b601f821115610f7657610f4781610e21565b610f5084610e33565b81016020851015610f5f578190505b610f73610f6b85610e33565b830182610f13565b50505b505050565b5f82821c905092915050565b5f610f965f1984600802610f7b565b1980831691505092915050565b5f610fae8383610f87565b9150826002028217905092915050565b610fc7826107f8565b67ffffffffffffffff811115610fe057610fdf61099a565b5b610fea8254610d89565b610ff5828285610f35565b5f60209050601f831160018114611026575f8415611014578287015190505b61101e8582610fa3565b865550611085565b601f19841661103486610e21565b5f5b8281101561105b57848901518255600182019150602085019450602081019050611036565b868310156110785784890151611074601f891682610f87565b8355505b6001600288020188555050505b50505050505056fea26469706673582212205d2feb14546334740e9052ef8104f7add70c3b275f2df8776b8c653c094689dd64736f6c63430008180033",
					"opcodes": "PUSH1 0x80 PUSH1 0x40 MSTORE CALLVALUE DUP1 ISZERO PUSH2 0xF JUMPI PUSH0 DUP1 REVERT JUMPDEST POP CALLER PUSH0 DUP1 PUSH2 0x100 EXP DUP2 SLOAD DUP2 PUSH20 0xFFFFFFFFFFFFFFFFFFFFFFFFFFFFFFFFFFFFFFFF MUL NOT AND SWAP1 DUP4 PUSH20 0xFFFFFFFFFFFFFFFFFFFFFFFFFFFFFFFFFFFFFFFF AND MUL OR SWAP1 SSTORE POP PUSH2 0x10C3 DUP1 PUSH2 0x5C PUSH0 CODECOPY PUSH0 RETURN INVALID PUSH1 0x80 PUSH1 0x40 MSTORE PUSH1 0x4 CALLDATASIZE LT PUSH2 0x49 JUMPI PUSH0 CALLDATALOAD PUSH1 0xE0 SHR DUP1 PUSH4 0x12065FE0 EQ PUSH2 0x4D JUMPI DUP1 PUSH4 0x3CCFD60B EQ PUSH2 0x77 JUMPI DUP1 PUSH4 0x73D4A13A EQ PUSH2 0x8D JUMPI DUP1 PUSH4 0x782154DF EQ PUSH2 0xBE JUMPI DUP1 PUSH4 0x8DA5CB5B EQ PUSH2 0xDA JUMPI JUMPDEST PUSH0 DUP1 REVERT JUMPDEST CALLVALUE DUP1 ISZERO PUSH2 0x58 JUMPI PUSH0 DUP1 REVERT JUMPDEST POP PUSH2 0x61 PUSH2 0x104 JUMP JUMPDEST PUSH1 0x40 MLOAD PUSH2 0x6E SWAP2 SWAP1 PUSH2 0x7DF JUMP JUMPDEST PUSH1 0x40 MLOAD DUP1 SWAP2 SUB SWAP1 RETURN JUMPDEST CALLVALUE DUP1 ISZERO PUSH2 0x82 JUMPI PUSH0 DUP1 REVERT JUMPDEST POP PUSH2 0x8B PUSH2 0x10B JUMP JUMPDEST STOP JUMPDEST CALLVALUE DUP1 ISZERO PUSH2 0x98 JUMPI PUSH0 DUP1 REVERT JUMPDEST POP PUSH2 0xA1 PUSH2 0x244 JUMP JUMPDEST PUSH1 0x40 MLOAD PUSH2 0xB5 SWAP9 SWAP8 SWAP7 SWAP6 SWAP5 SWAP4 SWAP3 SWAP2 SWAP1 PUSH2 0x8DB JUMP JUMPDEST PUSH1 0x40 MLOAD DUP1 SWAP2 SUB SWAP1 RETURN JUMPDEST PUSH2 0xD8 PUSH1 0x4 DUP1 CALLDATASIZE SUB DUP2 ADD SWAP1 PUSH2 0xD3 SWAP2 SWAP1 PUSH2 0xAE8 JUMP JUMPDEST PUSH2 0x5C8 JUMP JUMPDEST STOP JUMPDEST CALLVALUE DUP1 ISZERO PUSH2 0xE5 JUMPI PUSH0 DUP1 REVERT JUMPDEST POP PUSH2 0xEE PUSH2 0x7A4 JUMP JUMPDEST PUSH1 0x40 MLOAD PUSH2 0xFB SWAP2 SWAP1 PUSH2 0xC4D JUMP JUMPDEST PUSH1 0x40 MLOAD DUP1 SWAP2 SUB SWAP1 RETURN JUMPDEST PUSH0 SELFBALANCE SWAP1 POP SWAP1 JUMP JUMPDEST PUSH0 DUP1 SLOAD SWAP1 PUSH2 0x100 EXP SWAP1 DIV PUSH20 0xFFFFFFFFFFFFFFFFFFFFFFFFFFFFFFFFFFFFFFFF AND PUSH20 0xFFFFFFFFFFFFFFFFFFFFFFFFFFFFFFFFFFFFFFFF AND CALLER PUSH20 0xFFFFFFFFFFFFFFFFFFFFFFFFFFFFFFFFFFFFFFFF AND EQ PUSH2 0x198 JUMPI PUSH1 0x40 MLOAD PUSH32 0x8C379A000000000000000000000000000000000000000000000000000000000 DUP2 MSTORE PUSH1 0x4 ADD PUSH2 0x18F SWAP1 PUSH2 0xCD6 JUMP JUMPDEST PUSH1 0x40 MLOAD DUP1 SWAP2 SUB SWAP1 REVERT JUMPDEST PUSH0 SELFBALANCE SWAP1 POP PUSH0 DUP2 GT PUSH2 0x1DE JUMPI PUSH1 0x40 MLOAD PUSH32 0x8C379A000000000000000000000000000000000000000000000000000000000 DUP2 MSTORE PUSH1 0x4 ADD PUSH2 0x1D5 SWAP1 PUSH2 0xD3E JUMP JUMPDEST PUSH1 0x40 MLOAD DUP1 SWAP2 SUB SWAP1 REVERT JUMPDEST PUSH0 DUP1 SLOAD SWAP1 PUSH2 0x100 EXP SWAP1 DIV PUSH20 0xFFFFFFFFFFFFFFFFFFFFFFFFFFFFFFFFFFFFFFFF AND PUSH20 0xFFFFFFFFFFFFFFFFFFFFFFFFFFFFFFFFFFFFFFFF AND PUSH2 0x8FC DUP3 SWAP1 DUP2 ISZERO MUL SWAP1 PUSH1 0x40 MLOAD PUSH0 PUSH1 0x40 MLOAD DUP1 DUP4 SUB DUP2 DUP6 DUP9 DUP9 CALL SWAP4 POP POP POP POP ISZERO DUP1 ISZERO PUSH2 0x240 JUMPI RETURNDATASIZE PUSH0 DUP1 RETURNDATACOPY RETURNDATASIZE PUSH0 REVERT JUMPDEST POP POP JUMP JUMPDEST PUSH1 0x1 DUP1 PUSH0 ADD DUP1 SLOAD PUSH2 0x254 SWAP1 PUSH2 0xD89 JUMP JUMPDEST DUP1 PUSH1 0x1F ADD PUSH1 0x20 DUP1 SWAP2 DIV MUL PUSH1 0x20 ADD PUSH1 0x40 MLOAD SWAP1 DUP2 ADD PUSH1 0x40 MSTORE DUP1 SWAP3 SWAP2 SWAP1 DUP2 DUP2 MSTORE PUSH1 0x20 ADD DUP3 DUP1 SLOAD PUSH2 0x280 SWAP1 PUSH2 0xD89 JUMP JUMPDEST DUP1 ISZERO PUSH2 0x2CB JUMPI DUP1 PUSH1 0x1F LT PUSH2 0x2A2 JUMPI PUSH2 0x100 DUP1 DUP4 SLOAD DIV MUL DUP4 MSTORE SWAP2 PUSH1 0x20 ADD SWAP2 PUSH2 0x2CB JUMP JUMPDEST DUP3 ADD SWAP2 SWAP1 PUSH0 MSTORE PUSH1 0x20 PUSH0 KECCAK256 SWAP1 JUMPDEST DUP2 SLOAD DUP2 MSTORE SWAP1 PUSH1 0x1 ADD SWAP1 PUSH1 0x20 ADD DUP1 DUP4 GT PUSH2 0x2AE JUMPI DUP3 SWAP1 SUB PUSH1 0x1F AND DUP3 ADD SWAP2 JUMPDEST POP POP POP POP POP SWAP1 DUP1 PUSH1 0x1 ADD DUP1 SLOAD PUSH2 0x2E0 SWAP1 PUSH2 0xD89 JUMP JUMPDEST DUP1 PUSH1 0x1F ADD PUSH1 0x20 DUP1 SWAP2 DIV MUL PUSH1 0x20 ADD PUSH1 0x40 MLOAD SWAP1 DUP2 ADD PUSH1 0x40 MSTORE DUP1 SWAP3 SWAP2 SWAP1 DUP2 DUP2 MSTORE PUSH1 0x20 ADD DUP3 DUP1 SLOAD PUSH2 0x30C SWAP1 PUSH2 0xD89 JUMP JUMPDEST DUP1 ISZERO PUSH2 0x357 JUMPI DUP1 PUSH1 0x1F LT PUSH2 0x32E JUMPI PUSH2 0x100 DUP1 DUP4 SLOAD DIV MUL DUP4 MSTORE SWAP2 PUSH1 0x20 ADD SWAP2 PUSH2 0x357 JUMP JUMPDEST DUP3 ADD SWAP2 SWAP1 PUSH0 MSTORE PUSH1 0x20 PUSH0 KECCAK256 SWAP1 JUMPDEST DUP2 SLOAD DUP2 MSTORE SWAP1 PUSH1 0x1 ADD SWAP1 PUSH1 0x20 ADD DUP1 DUP4 GT PUSH2 0x33A JUMPI DUP3 SWAP1 SUB PUSH1 0x1F AND DUP3 ADD SWAP2 JUMPDEST POP POP POP POP POP SWAP1 DUP1 PUSH1 0x2 ADD DUP1 SLOAD PUSH2 0x36C SWAP1 PUSH2 0xD89 JUMP JUMPDEST DUP1 PUSH1 0x1F ADD PUSH1 0x20 DUP1 SWAP2 DIV MUL PUSH1 0x20 ADD PUSH1 0x40 MLOAD SWAP1 DUP2 ADD PUSH1 0x40 MSTORE DUP1 SWAP3 SWAP2 SWAP1 DUP2 DUP2 MSTORE PUSH1 0x20 ADD DUP3 DUP1 SLOAD PUSH2 0x398 SWAP1 PUSH2 0xD89 JUMP JUMPDEST DUP1 ISZERO PUSH2 0x3E3 JUMPI DUP1 PUSH1 0x1F LT PUSH2 0x3BA JUMPI PUSH2 0x100 DUP1 DUP4 SLOAD DIV MUL DUP4 MSTORE SWAP2 PUSH1 0x20 ADD SWAP2 PUSH2 0x3E3 JUMP JUMPDEST DUP3 ADD SWAP2 SWAP1 PUSH0 MSTORE PUSH1 0x20 PUSH0 KECCAK256 SWAP1 JUMPDEST DUP2 SLOAD DUP2 MSTORE SWAP1 PUSH1 0x1 ADD SWAP1 PUSH1 0x20 ADD DUP1 DUP4 GT PUSH2 0x3C6 JUMPI DUP3 SWAP1 SUB PUSH1 0x1F AND DUP3 ADD SWAP2 JUMPDEST POP POP POP POP POP SWAP1 DUP1 PUSH1 0x3 ADD DUP1 SLOAD PUSH2 0x3F8 SWAP1 PUSH2 0xD89 JUMP JUMPDEST DUP1 PUSH1 0x1F ADD PUSH1 0x20 DUP1 SWAP2 DIV MUL PUSH1 0x20 ADD PUSH1 0x40 MLOAD SWAP1 DUP2 ADD PUSH1 0x40 MSTORE DUP1 SWAP3 SWAP2 SWAP1 DUP2 DUP2 MSTORE PUSH1 0x20 ADD DUP3 DUP1 SLOAD PUSH2 0x424 SWAP1 PUSH2 0xD89 JUMP JUMPDEST DUP1 ISZERO PUSH2 0x46F JUMPI DUP1 PUSH1 0x1F LT PUSH2 0x446 JUMPI PUSH2 0x100 DUP1 DUP4 SLOAD DIV MUL DUP4 MSTORE SWAP2 PUSH1 0x20 ADD SWAP2 PUSH2 0x46F JUMP JUMPDEST DUP3 ADD SWAP2 SWAP1 PUSH0 MSTORE PUSH1 0x20 PUSH0 KECCAK256 SWAP1 JUMPDEST DUP2 SLOAD DUP2 MSTORE SWAP1 PUSH1 0x1 ADD SWAP1 PUSH1 0x20 ADD DUP1 DUP4 GT PUSH2 0x452 JUMPI DUP3 SWAP1 SUB PUSH1 0x1F AND DUP3 ADD SWAP2 JUMPDEST POP POP POP POP POP SWAP1 DUP1 PUSH1 0x4 ADD DUP1 SLOAD PUSH2 0x484 SWAP1 PUSH2 0xD89 JUMP JUMPDEST DUP1 PUSH1 0x1F ADD PUSH1 0x20 DUP1 SWAP2 DIV MUL PUSH1 0x20 ADD PUSH1 0x40 MLOAD SWAP1 DUP2 ADD PUSH1 0x40 MSTORE DUP1 SWAP3 SWAP2 SWAP1 DUP2 DUP2 MSTORE PUSH1 0x20 ADD DUP3 DUP1 SLOAD PUSH2 0x4B0 SWAP1 PUSH2 0xD89 JUMP JUMPDEST DUP1 ISZERO PUSH2 0x4FB JUMPI DUP1 PUSH1 0x1F LT PUSH2 0x4D2 JUMPI PUSH2 0x100 DUP1 DUP4 SLOAD DIV MUL DUP4 MSTORE SWAP2 PUSH1 0x20 ADD SWAP2 PUSH2 0x4FB JUMP JUMPDEST DUP3 ADD SWAP2 SWAP1 PUSH0 MSTORE PUSH1 0x20 PUSH0 KECCAK256 SWAP1 JUMPDEST DUP2 SLOAD DUP2 MSTORE SWAP1 PUSH1 0x1 ADD SWAP1 PUSH1 0x20 ADD DUP1 DUP4 GT PUSH2 0x4DE JUMPI DUP3 SWAP1 SUB PUSH1 0x1F AND DUP3 ADD SWAP2 JUMPDEST POP POP POP POP POP SWAP1 DUP1 PUSH1 0x5 ADD DUP1 SLOAD PUSH2 0x510 SWAP1 PUSH2 0xD89 JUMP JUMPDEST DUP1 PUSH1 0x1F ADD PUSH1 0x20 DUP1 SWAP2 DIV MUL PUSH1 0x20 ADD PUSH1 0x40 MLOAD SWAP1 DUP2 ADD PUSH1 0x40 MSTORE DUP1 SWAP3 SWAP2 SWAP1 DUP2 DUP2 MSTORE PUSH1 0x20 ADD DUP3 DUP1 SLOAD PUSH2 0x53C SWAP1 PUSH2 0xD89 JUMP JUMPDEST DUP1 ISZERO PUSH2 0x587 JUMPI DUP1 PUSH1 0x1F LT PUSH2 0x55E JUMPI PUSH2 0x100 DUP1 DUP4 SLOAD DIV MUL DUP4 MSTORE SWAP2 PUSH1 0x20 ADD SWAP2 PUSH2 0x587 JUMP JUMPDEST DUP3 ADD SWAP2 SWAP1 PUSH0 MSTORE PUSH1 0x20 PUSH0 KECCAK256 SWAP1 JUMPDEST DUP2 SLOAD DUP2 MSTORE SWAP1 PUSH1 0x1 ADD SWAP1 PUSH1 0x20 ADD DUP1 DUP4 GT PUSH2 0x56A JUMPI DUP3 SWAP1 SUB PUSH1 0x1F AND DUP3 ADD SWAP2 JUMPDEST POP POP POP POP POP SWAP1 DUP1 PUSH1 0x6 ADD PUSH0 SWAP1 SLOAD SWAP1 PUSH2 0x100 EXP SWAP1 DIV PUSH0 SIGNEXTEND SWAP1 DUP1 PUSH1 0x6 ADD PUSH1 0x1 SWAP1 SLOAD SWAP1 PUSH2 0x100 EXP SWAP1 DIV PUSH20 0xFFFFFFFFFFFFFFFFFFFFFFFFFFFFFFFFFFFFFFFF AND SWAP1 POP DUP9 JUMP JUMPDEST PUSH7 0x38D7EA4C68000 DUP1 CALLVALUE LT ISZERO PUSH2 0x613 JUMPI PUSH1 0x40 MLOAD PUSH32 0x8C379A000000000000000000000000000000000000000000000000000000000 DUP2 MSTORE PUSH1 0x4 ADD PUSH2 0x60A SWAP1 PUSH2 0xE03 JUMP JUMPDEST PUSH1 0x40 MLOAD DUP1 SWAP2 SUB SWAP1 REVERT JUMPDEST PUSH1 0x40 MLOAD DUP1 PUSH2 0x100 ADD PUSH1 0x40 MSTORE DUP1 DUP10 DUP2 MSTORE PUSH1 0x20 ADD DUP9 DUP2 MSTORE PUSH1 0x20 ADD DUP8 DUP2 MSTORE PUSH1 0x20 ADD DUP7 DUP2 MSTORE PUSH1 0x20 ADD DUP6 DUP2 MSTORE PUSH1 0x20 ADD DUP5 DUP2 MSTORE PUSH1 0x20 ADD DUP4 PUSH0 SIGNEXTEND DUP2 MSTORE PUSH1 0x20 ADD CALLER PUSH20 0xFFFFFFFFFFFFFFFFFFFFFFFFFFFFFFFFFFFFFFFF AND DUP2 MSTORE POP PUSH1 0x1 PUSH0 DUP3 ADD MLOAD DUP2 PUSH0 ADD SWAP1 DUP2 PUSH2 0x67A SWAP2 SWAP1 PUSH2 0xFBE JUMP JUMPDEST POP PUSH1 0x20 DUP3 ADD MLOAD DUP2 PUSH1 0x1 ADD SWAP1 DUP2 PUSH2 0x690 SWAP2 SWAP1 PUSH2 0xFBE JUMP JUMPDEST POP PUSH1 0x40 DUP3 ADD MLOAD DUP2 PUSH1 0x2 ADD SWAP1 DUP2 PUSH2 0x6A6 SWAP2 SWAP1 PUSH2 0xFBE JUMP JUMPDEST POP PUSH1 0x60 DUP3 ADD MLOAD DUP2 PUSH1 0x3 ADD SWAP1 DUP2 PUSH2 0x6BC SWAP2 SWAP1 PUSH2 0xFBE JUMP JUMPDEST POP PUSH1 0x80 DUP3 ADD MLOAD DUP2 PUSH1 0x4 ADD SWAP1 DUP2 PUSH2 0x6D2 SWAP2 SWAP1 PUSH2 0xFBE JUMP JUMPDEST POP PUSH1 0xA0 DUP3 ADD MLOAD DUP2 PUSH1 0x5 ADD SWAP1 DUP2 PUSH2 0x6E8 SWAP2 SWAP1 PUSH2 0xFBE JUMP JUMPDEST POP PUSH1 0xC0 DUP3 ADD MLOAD DUP2 PUSH1 0x6 ADD PUSH0 PUSH2 0x100 EXP DUP2 SLOAD DUP2 PUSH1 0xFF MUL NOT AND SWAP1 DUP4 PUSH0 SIGNEXTEND PUSH1 0xFF AND MUL OR SWAP1 SSTORE POP PUSH1 0xE0 DUP3 ADD MLOAD DUP2 PUSH1 0x6 ADD PUSH1 0x1 PUSH2 0x100 EXP DUP2 SLOAD DUP2 PUSH20 0xFFFFFFFFFFFFFFFFFFFFFFFFFFFFFFFFFFFFFFFF MUL NOT AND SWAP1 DUP4 PUSH20 0xFFFFFFFFFFFFFFFFFFFFFFFFFFFFFFFFFFFFFFFF AND MUL OR SWAP1 SSTORE POP SWAP1 POP POP PUSH32 0x870247EB151FD35C4907322D059C22CBE7EB7930B7B7116D4A107CBBB5378D12 DUP9 DUP9 DUP9 DUP9 DUP9 DUP9 DUP9 CALLER PUSH1 0x40 MLOAD PUSH2 0x792 SWAP9 SWAP8 SWAP7 SWAP6 SWAP5 SWAP4 SWAP3 SWAP2 SWAP1 PUSH2 0x8DB JUMP JUMPDEST PUSH1 0x40 MLOAD DUP1 SWAP2 SUB SWAP1 LOG1 POP POP POP POP POP POP POP POP JUMP JUMPDEST PUSH0 DUP1 SLOAD SWAP1 PUSH2 0x100 EXP SWAP1 DIV PUSH20 0xFFFFFFFFFFFFFFFFFFFFFFFFFFFFFFFFFFFFFFFF AND DUP2 JUMP JUMPDEST PUSH0 DUP2 SWAP1 POP SWAP2 SWAP1 POP JUMP JUMPDEST PUSH2 0x7D9 DUP2 PUSH2 0x7C7 JUMP JUMPDEST DUP3 MSTORE POP POP JUMP JUMPDEST PUSH0 PUSH1 0x20 DUP3 ADD SWAP1 POP PUSH2 0x7F2 PUSH0 DUP4 ADD DUP5 PUSH2 0x7D0 JUMP JUMPDEST SWAP3 SWAP2 POP POP JUMP JUMPDEST PUSH0 DUP2 MLOAD SWAP1 POP SWAP2 SWAP1 POP JUMP JUMPDEST PUSH0 DUP3 DUP3 MSTORE PUSH1 0x20 DUP3 ADD SWAP1 POP SWAP3 SWAP2 POP POP JUMP JUMPDEST PUSH0 JUMPDEST DUP4 DUP2 LT ISZERO PUSH2 0x82F JUMPI DUP1 DUP3 ADD MLOAD DUP2 DUP5 ADD MSTORE PUSH1 0x20 DUP2 ADD SWAP1 POP PUSH2 0x814 JUMP JUMPDEST PUSH0 DUP5 DUP5 ADD MSTORE POP POP POP POP JUMP JUMPDEST PUSH0 PUSH1 0x1F NOT PUSH1 0x1F DUP4 ADD AND SWAP1 POP SWAP2 SWAP1 POP JUMP JUMPDEST PUSH0 PUSH2 0x854 DUP3 PUSH2 0x7F8 JUMP JUMPDEST PUSH2 0x85E DUP2 DUP6 PUSH2 0x802 JUMP JUMPDEST SWAP4 POP PUSH2 0x86E DUP2 DUP6 PUSH1 0x20 DUP7 ADD PUSH2 0x812 JUMP JUMPDEST PUSH2 0x877 DUP2 PUSH2 0x83A JUMP JUMPDEST DUP5 ADD SWAP2 POP POP SWAP3 SWAP2 POP POP JUMP JUMPDEST PUSH0 DUP2 PUSH0 SIGNEXTEND SWAP1 POP SWAP2 SWAP1 POP JUMP JUMPDEST PUSH2 0x896 DUP2 PUSH2 0x882 JUMP JUMPDEST DUP3 MSTORE POP POP JUMP JUMPDEST PUSH0 PUSH20 0xFFFFFFFFFFFFFFFFFFFFFFFFFFFFFFFFFFFFFFFF DUP3 AND SWAP1 POP SWAP2 SWAP1 POP JUMP JUMPDEST PUSH0 PUSH2 0x8C5 DUP3 PUSH2 0x89C JUMP JUMPDEST SWAP1 POP SWAP2 SWAP1 POP JUMP JUMPDEST PUSH2 0x8D5 DUP2 PUSH2 0x8BB JUMP JUMPDEST DUP3 MSTORE POP POP JUMP JUMPDEST PUSH0 PUSH2 0x100 DUP3 ADD SWAP1 POP DUP2 DUP2 SUB PUSH0 DUP4 ADD MSTORE PUSH2 0x8F4 DUP2 DUP12 PUSH2 0x84A JUMP JUMPDEST SWAP1 POP DUP2 DUP2 SUB PUSH1 0x20 DUP4 ADD MSTORE PUSH2 0x908 DUP2 DUP11 PUSH2 0x84A JUMP JUMPDEST SWAP1 POP DUP2 DUP2 SUB PUSH1 0x40 DUP4 ADD MSTORE PUSH2 0x91C DUP2 DUP10 PUSH2 0x84A JUMP JUMPDEST SWAP1 POP DUP2 DUP2 SUB PUSH1 0x60 DUP4 ADD MSTORE PUSH2 0x930 DUP2 DUP9 PUSH2 0x84A JUMP JUMPDEST SWAP1 POP DUP2 DUP2 SUB PUSH1 0x80 DUP4 ADD MSTORE PUSH2 0x944 DUP2 DUP8 PUSH2 0x84A JUMP JUMPDEST SWAP1 POP DUP2 DUP2 SUB PUSH1 0xA0 DUP4 ADD MSTORE PUSH2 0x958 DUP2 DUP7 PUSH2 0x84A JUMP JUMPDEST SWAP1 POP PUSH2 0x967 PUSH1 0xC0 DUP4 ADD DUP6 PUSH2 0x88D JUMP JUMPDEST PUSH2 0x974 PUSH1 0xE0 DUP4 ADD DUP5 PUSH2 0x8CC JUMP JUMPDEST SWAP10 SWAP9 POP POP POP POP POP POP POP POP POP JUMP JUMPDEST PUSH0 PUSH1 0x40 MLOAD SWAP1 POP SWAP1 JUMP JUMPDEST PUSH0 DUP1 REVERT JUMPDEST PUSH0 DUP1 REVERT JUMPDEST PUSH0 DUP1 REVERT JUMPDEST PUSH0 DUP1 REVERT JUMPDEST PUSH32 0x4E487B7100000000000000000000000000000000000000000000000000000000 PUSH0 MSTORE PUSH1 0x41 PUSH1 0x4 MSTORE PUSH1 0x24 PUSH0 REVERT JUMPDEST PUSH2 0x9D0 DUP3 PUSH2 0x83A JUMP JUMPDEST DUP2 ADD DUP2 DUP2 LT PUSH8 0xFFFFFFFFFFFFFFFF DUP3 GT OR ISZERO PUSH2 0x9EF JUMPI PUSH2 0x9EE PUSH2 0x99A JUMP JUMPDEST JUMPDEST DUP1 PUSH1 0x40 MSTORE POP POP POP JUMP JUMPDEST PUSH0 PUSH2 0xA01 PUSH2 0x981 JUMP JUMPDEST SWAP1 POP PUSH2 0xA0D DUP3 DUP3 PUSH2 0x9C7 JUMP JUMPDEST SWAP2 SWAP1 POP JUMP JUMPDEST PUSH0 PUSH8 0xFFFFFFFFFFFFFFFF DUP3 GT ISZERO PUSH2 0xA2C JUMPI PUSH2 0xA2B PUSH2 0x99A JUMP JUMPDEST JUMPDEST PUSH2 0xA35 DUP3 PUSH2 0x83A JUMP JUMPDEST SWAP1 POP PUSH1 0x20 DUP2 ADD SWAP1 POP SWAP2 SWAP1 POP JUMP JUMPDEST DUP3 DUP2 DUP4 CALLDATACOPY PUSH0 DUP4 DUP4 ADD MSTORE POP POP POP JUMP JUMPDEST PUSH0 PUSH2 0xA62 PUSH2 0xA5D DUP5 PUSH2 0xA12 JUMP JUMPDEST PUSH2 0x9F8 JUMP JUMPDEST SWAP1 POP DUP3 DUP2 MSTORE PUSH1 0x20 DUP2 ADD DUP5 DUP5 DUP5 ADD GT ISZERO PUSH2 0xA7E JUMPI PUSH2 0xA7D PUSH2 0x996 JUMP JUMPDEST JUMPDEST PUSH2 0xA89 DUP5 DUP3 DUP6 PUSH2 0xA42 JUMP JUMPDEST POP SWAP4 SWAP3 POP POP POP JUMP JUMPDEST PUSH0 DUP3 PUSH1 0x1F DUP4 ADD SLT PUSH2 0xAA5 JUMPI PUSH2 0xAA4 PUSH2 0x992 JUMP JUMPDEST JUMPDEST DUP2 CALLDATALOAD PUSH2 0xAB5 DUP5 DUP3 PUSH1 0x20 DUP7 ADD PUSH2 0xA50 JUMP JUMPDEST SWAP2 POP POP SWAP3 SWAP2 POP POP JUMP JUMPDEST PUSH2 0xAC7 DUP2 PUSH2 0x882 JUMP JUMPDEST DUP2 EQ PUSH2 0xAD1 JUMPI PUSH0 DUP1 REVERT JUMPDEST POP JUMP JUMPDEST PUSH0 DUP2 CALLDATALOAD SWAP1 POP PUSH2 0xAE2 DUP2 PUSH2 0xABE JUMP JUMPDEST SWAP3 SWAP2 POP POP JUMP JUMPDEST PUSH0 DUP1 PUSH0 DUP1 PUSH0 DUP1 PUSH0 PUSH1 0xE0 DUP9 DUP11 SUB SLT ISZERO PUSH2 0xB03 JUMPI PUSH2 0xB02 PUSH2 0x98A JUMP JUMPDEST JUMPDEST PUSH0 DUP9 ADD CALLDATALOAD PUSH8 0xFFFFFFFFFFFFFFFF DUP2 GT ISZERO PUSH2 0xB20 JUMPI PUSH2 0xB1F PUSH2 0x98E JUMP JUMPDEST JUMPDEST PUSH2 0xB2C DUP11 DUP3 DUP12 ADD PUSH2 0xA91 JUMP JUMPDEST SWAP8 POP POP PUSH1 0x20 DUP9 ADD CALLDATALOAD PUSH8 0xFFFFFFFFFFFFFFFF DUP2 GT ISZERO PUSH2 0xB4D JUMPI PUSH2 0xB4C PUSH2 0x98E JUMP JUMPDEST JUMPDEST PUSH2 0xB59 DUP11 DUP3 DUP12 ADD PUSH2 0xA91 JUMP JUMPDEST SWAP7 POP POP PUSH1 0x40 DUP9 ADD CALLDATALOAD PUSH8 0xFFFFFFFFFFFFFFFF DUP2 GT ISZERO PUSH2 0xB7A JUMPI PUSH2 0xB79 PUSH2 0x98E JUMP JUMPDEST JUMPDEST PUSH2 0xB86 DUP11 DUP3 DUP12 ADD PUSH2 0xA91 JUMP JUMPDEST SWAP6 POP POP PUSH1 0x60 DUP9 ADD CALLDATALOAD PUSH8 0xFFFFFFFFFFFFFFFF DUP2 GT ISZERO PUSH2 0xBA7 JUMPI PUSH2 0xBA6 PUSH2 0x98E JUMP JUMPDEST JUMPDEST PUSH2 0xBB3 DUP11 DUP3 DUP12 ADD PUSH2 0xA91 JUMP JUMPDEST SWAP5 POP POP PUSH1 0x80 DUP9 ADD CALLDATALOAD PUSH8 0xFFFFFFFFFFFFFFFF DUP2 GT ISZERO PUSH2 0xBD4 JUMPI PUSH2 0xBD3 PUSH2 0x98E JUMP JUMPDEST JUMPDEST PUSH2 0xBE0 DUP11 DUP3 DUP12 ADD PUSH2 0xA91 JUMP JUMPDEST SWAP4 POP POP PUSH1 0xA0 DUP9 ADD CALLDATALOAD PUSH8 0xFFFFFFFFFFFFFFFF DUP2 GT ISZERO PUSH2 0xC01 JUMPI PUSH2 0xC00 PUSH2 0x98E JUMP JUMPDEST JUMPDEST PUSH2 0xC0D DUP11 DUP3 DUP12 ADD PUSH2 0xA91 JUMP JUMPDEST SWAP3 POP POP PUSH1 0xC0 PUSH2 0xC1E DUP11 DUP3 DUP12 ADD PUSH2 0xAD4 JUMP JUMPDEST SWAP2 POP POP SWAP3 SWAP6 SWAP9 SWAP2 SWAP5 SWAP8 POP SWAP3 SWAP6 POP JUMP JUMPDEST PUSH0 PUSH2 0xC37 DUP3 PUSH2 0x89C JUMP JUMPDEST SWAP1 POP SWAP2 SWAP1 POP JUMP JUMPDEST PUSH2 0xC47 DUP2 PUSH2 0xC2D JUMP JUMPDEST DUP3 MSTORE POP POP JUMP JUMPDEST PUSH0 PUSH1 0x20 DUP3 ADD SWAP1 POP PUSH2 0xC60 PUSH0 DUP4 ADD DUP5 PUSH2 0xC3E JUMP JUMPDEST SWAP3 SWAP2 POP POP JUMP JUMPDEST PUSH32 0x536F6C6F20656C2070726F706965746172696F20707565646520726574697261 PUSH0 DUP3 ADD MSTORE PUSH32 0x72206C6F7320666F6E646F730000000000000000000000000000000000000000 PUSH1 0x20 DUP3 ADD MSTORE POP JUMP JUMPDEST PUSH0 PUSH2 0xCC0 PUSH1 0x2C DUP4 PUSH2 0x802 JUMP JUMPDEST SWAP2 POP PUSH2 0xCCB DUP3 PUSH2 0xC66 JUMP JUMPDEST PUSH1 0x40 DUP3 ADD SWAP1 POP SWAP2 SWAP1 POP JUMP JUMPDEST PUSH0 PUSH1 0x20 DUP3 ADD SWAP1 POP DUP2 DUP2 SUB PUSH0 DUP4 ADD MSTORE PUSH2 0xCED DUP2 PUSH2 0xCB4 JUMP JUMPDEST SWAP1 POP SWAP2 SWAP1 POP JUMP JUMPDEST PUSH32 0x4E6F2068617920666F6E646F7320656E20656C20636F6E747261746F00000000 PUSH0 DUP3 ADD MSTORE POP JUMP JUMPDEST PUSH0 PUSH2 0xD28 PUSH1 0x1C DUP4 PUSH2 0x802 JUMP JUMPDEST SWAP2 POP PUSH2 0xD33 DUP3 PUSH2 0xCF4 JUMP JUMPDEST PUSH1 0x20 DUP3 ADD SWAP1 POP SWAP2 SWAP1 POP JUMP JUMPDEST PUSH0 PUSH1 0x20 DUP3 ADD SWAP1 POP DUP2 DUP2 SUB PUSH0 DUP4 ADD MSTORE PUSH2 0xD55 DUP2 PUSH2 0xD1C JUMP JUMPDEST SWAP1 POP SWAP2 SWAP1 POP JUMP JUMPDEST PUSH32 0x4E487B7100000000000000000000000000000000000000000000000000000000 PUSH0 MSTORE PUSH1 0x22 PUSH1 0x4 MSTORE PUSH1 0x24 PUSH0 REVERT JUMPDEST PUSH0 PUSH1 0x2 DUP3 DIV SWAP1 POP PUSH1 0x1 DUP3 AND DUP1 PUSH2 0xDA0 JUMPI PUSH1 0x7F DUP3 AND SWAP2 POP JUMPDEST PUSH1 0x20 DUP3 LT DUP2 SUB PUSH2 0xDB3 JUMPI PUSH2 0xDB2 PUSH2 0xD5C JUMP JUMPDEST JUMPDEST POP SWAP2 SWAP1 POP JUMP JUMPDEST PUSH32 0x4E6F207469656E652073616C646F207061726120656A63757461720000000000 PUSH0 DUP3 ADD MSTORE POP JUMP JUMPDEST PUSH0 PUSH2 0xDED PUSH1 0x1B DUP4 PUSH2 0x802 JUMP JUMPDEST SWAP2 POP PUSH2 0xDF8 DUP3 PUSH2 0xDB9 JUMP JUMPDEST PUSH1 0x20 DUP3 ADD SWAP1 POP SWAP2 SWAP1 POP JUMP JUMPDEST PUSH0 PUSH1 0x20 DUP3 ADD SWAP1 POP DUP2 DUP2 SUB PUSH0 DUP4 ADD MSTORE PUSH2 0xE1A DUP2 PUSH2 0xDE1 JUMP JUMPDEST SWAP1 POP SWAP2 SWAP1 POP JUMP JUMPDEST PUSH0 DUP2 SWAP1 POP DUP2 PUSH0 MSTORE PUSH1 0x20 PUSH0 KECCAK256 SWAP1 POP SWAP2 SWAP1 POP JUMP JUMPDEST PUSH0 PUSH1 0x20 PUSH1 0x1F DUP4 ADD DIV SWAP1 POP SWAP2 SWAP1 POP JUMP JUMPDEST PUSH0 DUP3 DUP3 SHL SWAP1 POP SWAP3 SWAP2 POP POP JUMP JUMPDEST PUSH0 PUSH1 0x8 DUP4 MUL PUSH2 0xE7D PUSH32 0xFFFFFFFFFFFFFFFFFFFFFFFFFFFFFFFFFFFFFFFFFFFFFFFFFFFFFFFFFFFFFFFF DUP3 PUSH2 0xE42 JUMP JUMPDEST PUSH2 0xE87 DUP7 DUP4 PUSH2 0xE42 JUMP JUMPDEST SWAP6 POP DUP1 NOT DUP5 AND SWAP4 POP DUP1 DUP7 AND DUP5 OR SWAP3 POP POP POP SWAP4 SWAP3 POP POP POP JUMP JUMPDEST PUSH0 DUP2 SWAP1 POP SWAP2 SWAP1 POP JUMP JUMPDEST PUSH0 PUSH2 0xEC2 PUSH2 0xEBD PUSH2 0xEB8 DUP5 PUSH2 0x7C7 JUMP JUMPDEST PUSH2 0xE9F JUMP JUMPDEST PUSH2 0x7C7 JUMP JUMPDEST SWAP1 POP SWAP2 SWAP1 POP JUMP JUMPDEST PUSH0 DUP2 SWAP1 POP SWAP2 SWAP1 POP JUMP JUMPDEST PUSH2 0xEDB DUP4 PUSH2 0xEA8 JUMP JUMPDEST PUSH2 0xEEF PUSH2 0xEE7 DUP3 PUSH2 0xEC9 JUMP JUMPDEST DUP5 DUP5 SLOAD PUSH2 0xE4E JUMP JUMPDEST DUP3 SSTORE POP POP POP POP JUMP JUMPDEST PUSH0 SWAP1 JUMP JUMPDEST PUSH2 0xF03 PUSH2 0xEF7 JUMP JUMPDEST PUSH2 0xF0E DUP2 DUP5 DUP5 PUSH2 0xED2 JUMP JUMPDEST POP POP POP JUMP JUMPDEST JUMPDEST DUP2 DUP2 LT ISZERO PUSH2 0xF31 JUMPI PUSH2 0xF26 PUSH0 DUP3 PUSH2 0xEFB JUMP JUMPDEST PUSH1 0x1 DUP2 ADD SWAP1 POP PUSH2 0xF14 JUMP JUMPDEST POP POP JUMP JUMPDEST PUSH1 0x1F DUP3 GT ISZERO PUSH2 0xF76 JUMPI PUSH2 0xF47 DUP2 PUSH2 0xE21 JUMP JUMPDEST PUSH2 0xF50 DUP5 PUSH2 0xE33 JUMP JUMPDEST DUP2 ADD PUSH1 0x20 DUP6 LT ISZERO PUSH2 0xF5F JUMPI DUP2 SWAP1 POP JUMPDEST PUSH2 0xF73 PUSH2 0xF6B DUP6 PUSH2 0xE33 JUMP JUMPDEST DUP4 ADD DUP3 PUSH2 0xF13 JUMP JUMPDEST POP POP JUMPDEST POP POP POP JUMP JUMPDEST PUSH0 DUP3 DUP3 SHR SWAP1 POP SWAP3 SWAP2 POP POP JUMP JUMPDEST PUSH0 PUSH2 0xF96 PUSH0 NOT DUP5 PUSH1 0x8 MUL PUSH2 0xF7B JUMP JUMPDEST NOT DUP1 DUP4 AND SWAP2 POP POP SWAP3 SWAP2 POP POP JUMP JUMPDEST PUSH0 PUSH2 0xFAE DUP4 DUP4 PUSH2 0xF87 JUMP JUMPDEST SWAP2 POP DUP3 PUSH1 0x2 MUL DUP3 OR SWAP1 POP SWAP3 SWAP2 POP POP JUMP JUMPDEST PUSH2 0xFC7 DUP3 PUSH2 0x7F8 JUMP JUMPDEST PUSH8 0xFFFFFFFFFFFFFFFF DUP2 GT ISZERO PUSH2 0xFE0 JUMPI PUSH2 0xFDF PUSH2 0x99A JUMP JUMPDEST JUMPDEST PUSH2 0xFEA DUP3 SLOAD PUSH2 0xD89 JUMP JUMPDEST PUSH2 0xFF5 DUP3 DUP3 DUP6 PUSH2 0xF35 JUMP JUMPDEST PUSH0 PUSH1 0x20 SWAP1 POP PUSH1 0x1F DUP4 GT PUSH1 0x1 DUP2 EQ PUSH2 0x1026 JUMPI PUSH0 DUP5 ISZERO PUSH2 0x1014 JUMPI DUP3 DUP8 ADD MLOAD SWAP1 POP JUMPDEST PUSH2 0x101E DUP6 DUP3 PUSH2 0xFA3 JUMP JUMPDEST DUP7 SSTORE POP PUSH2 0x1085 JUMP JUMPDEST PUSH1 0x1F NOT DUP5 AND PUSH2 0x1034 DUP7 PUSH2 0xE21 JUMP JUMPDEST PUSH0 JUMPDEST DUP3 DUP2 LT ISZERO PUSH2 0x105B JUMPI DUP5 DUP10 ADD MLOAD DUP3 SSTORE PUSH1 0x1 DUP3 ADD SWAP2 POP PUSH1 0x20 DUP6 ADD SWAP5 POP PUSH1 0x20 DUP2 ADD SWAP1 POP PUSH2 0x1036 JUMP JUMPDEST DUP7 DUP4 LT ISZERO PUSH2 0x1078 JUMPI DUP5 DUP10 ADD MLOAD PUSH2 0x1074 PUSH1 0x1F DUP10 AND DUP3 PUSH2 0xF87 JUMP JUMPDEST DUP4 SSTORE POP JUMPDEST PUSH1 0x1 PUSH1 0x2 DUP9 MUL ADD DUP9 SSTORE POP POP POP JUMPDEST POP POP POP POP POP POP JUMP INVALID LOG2 PUSH5 0x6970667358 0x22 SLT KECCAK256 TSTORE 0x2F 0xEB EQ SLOAD PUSH4 0x34740E90 MSTORE 0xEF DUP2 DIV 0xF7 0xAD 0xD7 0xC EXTCODESIZE 0x27 PUSH0 0x2D 0xF8 PUSH24 0x6B8C653C094689DD64736F6C634300081800330000000000 "
				},
				"gasEstimates": {
					"creation": {
						"codeDepositCost": "858200",
						"executionCost": "25159",
						"totalCost": "883359"
					},
					"external": {
						"data()": "infinite",
						"getBalance()": "312",
						"owner()": "2571",
						"pushData(string,string,string,string,string,string,int8)": "infinite",
						"withdraw()": "infinite"
					}
				},
				"methodIdentifiers": {
					"data()": "73d4a13a",
					"getBalance()": "12065fe0",
					"owner()": "8da5cb5b",
					"pushData(string,string,string,string,string,string,int8)": "782154df",
					"withdraw()": "3ccfd60b"
				}
			},
			"storageLayout": {
				"storage": [
					{
						"astId": 3,
						"contract": "tc_arb.sol:tc_arb",
						"label": "owner",
						"offset": 0,
						"slot": "0",
						"type": "t_address_payable"
					},
					{
						"astId": 23,
						"contract": "tc_arb.sol:tc_arb",
						"label": "data",
						"offset": 0,
						"slot": "1",
						"type": "t_struct(Data)20_storage"
					}
				],
				"types": {
					"t_address": {
						"encoding": "inplace",
						"label": "address",
						"numberOfBytes": "20"
					},
					"t_address_payable": {
						"encoding": "inplace",
						"label": "address payable",
						"numberOfBytes": "20"
					},
					"t_int8": {
						"encoding": "inplace",
						"label": "int8",
						"numberOfBytes": "1"
					},
					"t_string_storage": {
						"encoding": "bytes",
						"label": "string",
						"numberOfBytes": "32"
					},
					"t_struct(Data)20_storage": {
						"encoding": "inplace",
						"label": "struct tc_arb.Data",
						"members": [
							{
								"astId": 5,
								"contract": "tc_arb.sol:tc_arb",
								"label": "date",
								"offset": 0,
								"slot": "0",
								"type": "t_string_storage"
							},
							{
								"astId": 7,
								"contract": "tc_arb.sol:tc_arb",
								"label": "delivery_date",
								"offset": 0,
								"slot": "1",
								"type": "t_string_storage"
							},
							{
								"astId": 9,
								"contract": "tc_arb.sol:tc_arb",
								"label": "product",
								"offset": 0,
								"slot": "2",
								"type": "t_string_storage"
							},
							{
								"astId": 11,
								"contract": "tc_arb.sol:tc_arb",
								"label": "price",
								"offset": 0,
								"slot": "3",
								"type": "t_string_storage"
							},
							{
								"astId": 13,
								"contract": "tc_arb.sol:tc_arb",
								"label": "code",
								"offset": 0,
								"slot": "4",
								"type": "t_string_storage"
							},
							{
								"astId": 15,
								"contract": "tc_arb.sol:tc_arb",
								"label": "cel_number",
								"offset": 0,
								"slot": "5",
								"type": "t_string_storage"
							},
							{
								"astId": 17,
								"contract": "tc_arb.sol:tc_arb",
								"label": "status",
								"offset": 0,
								"slot": "6",
								"type": "t_int8"
							},
							{
								"astId": 19,
								"contract": "tc_arb.sol:tc_arb",
								"label": "wallet",
								"offset": 1,
								"slot": "6",
								"type": "t_address"
							}
						],
						"numberOfBytes": "224"
					}
				}
			},
			"userdoc": {
				"kind": "user",
				"methods": {},
				"version": 1
			}
		}
	}
}